:020000040800F2
:1000000088270020ED3D0008513C0008533C0008C3
:10001000553C0008573C0008593C0008000000000F
:100020000000000000000000000000005B3C000831
:100030005D3C0008000000005F3C0008613C0008D7
:100040001D3E0008213E0008253E0008293E00080C
:100050002D3E0008313E0008353E0008393E0008BC
:100060003D3E0008413E0008453E0008493E00086C
:100070004D3E0008513E0008553E0008593E00081C
:100080005D3E0008613E0008653E0008693E0008CC
:100090006D3E0008AF3C0008713E0008753E000848
:1000A000793E00087D3E0008693C0008813E00085A
:1000B0007D3C0008853E0008933C0008893E00080E
:1000C0008D3E0008913E0008953E0008993E0008CC
:1000D0009D3E0008A13E0008A53E0008A93E00087C
:1000E000AD3E0008B13E0008B53E0008B93E00082C
:1000F000BD3E0008C13E0008C53E0008C93E0008DC
:10010000CD3E0008D13E0008D53E0008D93E00088B
:10011000DD3E0008E13E0008E53E0008E93E00083B
:10012000ED3E0008F13E0008F53E0008F93E0008EB
:100130002DE9F04180460D00140000200020002031
:100140000020280080B2802190FBF1F601FB16060A
:10015000D6F18007200080B2802190FBF1F02100D1
:1001600089B2802291FBF2F002FB1010300080B2C5
:1001700010FA84F0812809DA220092B2290089B2AB
:10018000404600F024FA00F088FB4AE03A00D2B280
:1001900092B2310089B2404600F019FA00F07DFBBE
:1001A00055FA87F53800C0B280443800C0B2241A2E
:1001B000200080B280282ADB200080B2802190FBC2
:1001C000F1F6A4B2802094FBF0F100FB11440AE0A8
:1001D0008022290089B2404600F0F9F900F05DFB69
:1001E000803518F180083000461EC0B20028EFD1DB
:1001F0002000C0B2002814D0E4B2220092B229003C
:1002000089B2404600F0E3F900F047FB09E0FFB295
:100210003A0092B2310089B2404600F0D8F900F0BD
:100220003CFBDFF8344A2021200000F098FD20211B
:10023000200000F094FD2021200000F090FDBDE89A
:10024000F0812DE9F14F88B00C0016005FF0000935
:100250005FF000080025002706E0DFF8000A00F044
:10026000E7FE00275FF001092800C0B2002840F037
:100270007A814846C0B2002808D0022863D035D31E
:10028000042800F04A81C0F07F8065E14046C0B29A
:100290000028E2D1DFF8C499484600F0C4FE484681
:1002A00000F0BCFE0121484600F0A1FE00E07F1CEA
:1002B00040F20161484600F0DFFE002804D038001B
:1002C00080B2B0F57A7FF2D3BFB2B7F57A7F06D2AB
:1002D000484600F0ADFE00275FF00109C4E700F0DA
:1002E00045F900275FF00009BEE77F1CDFF86C9935
:1002F0004FF4A061484600F0BFFE002804D138004A
:1003000080B2B0F57A7FF0D3BFB2B7F57A7F13D25F
:100310004046C0B2002806D17FF00102A021484625
:1003200000F071FE04E00122A021484600F06BFEBF
:1003300000275FF0020904E000275FF000085FF08B
:10034000000991E77F1C40F2015ADFF810995146ED
:10035000484600F091FE002804D1380080B2B0F584
:100360007A7FEFD3BFB2B7F57A7F07D251464846BE
:1003700000F091FE00275FF0030904E000275FF022
:1003800000085FF000096FE74046C0B2002824D0A3
:10039000300080B2022880F28280DFF8C07800212D
:1003A000380000F024FE40F20151380000F064FEF5
:1003B000380000F042FE40F20651380000F05CFECA
:1003C0000028F8D0380000F041FE08990870761E29
:1003D00000275FF004099FE07F1CDFF8809840F25F
:1003E0000751484600F048FE002804D1380080B28A
:1003F000B0F57A7FF0D3BFB2B7F57A7F09D221008A
:1004000089B2090AC9B2484600F01CFE5FF0000A32
:1004100007E05FF0000A5FF00008002001E01AF139
:10042000010A40F202573900484600F025FE002834
:1004300004D1504680B2B0F57A7FF0D31FFA8AFA21
:10044000BAF57A7F07D22100C9B2484600F0FAFD1A
:100450005FF0000A07E05FF0000A5FF0000800208C
:1004600001E01AF1010A3900484600F005FE0028B3
:1004700004D1504680B2B0F57A7FF2D31FFA8AFADF
:10048000BAF57A7F05D218F1010800275FF000095C
:1004900042E000275FF000085FF000093CE0DFF871
:1004A000C0A70421504600F021FE00208DF81A005C
:1004B0000898029001208DF8190000200390300068
:1004C00080B20490DFF89C07009000208DF818009F
:1004D000002001904FF4405005906A460421504698
:1004E00000F044FEDFF874B74FF48051584600F036
:1004F000BAFD4FF40061584600F0ACFD04215046AF
:1005000000F0CAFE01E05FF0040902220421504617
:1005100000F0DCFE0028F6D0A6E6DFF8400700F089
:100520008CFD00E07F1CDFF834070068800504D5EF
:10053000380080B2B0F57A7FF4D3BFB2B7F57A7FD6
:1005400004D200275FF00509012504E000275FF0D1
:1005500000085FF0000987E600275FF000085FF001
:100560000009002580E609B0BDE8F08F10B5DFF87E
:10057000EC0600F05BFCDFF8F006016851F4406126
:100580000160DFF8E8464FF44063032210212000A9
:1005900000F076FB00BF00BF00BF00BF00BFDFF868
:1005A000D006016851F48061016000BF00BF00BF48
:1005B00000BF00BF016851F400610160C023032245
:1005C0001C21200000F05CFB00F09AFE10BD2DE91C
:1005D000F04F87B004000D0016005FF00008002700
:1005E0005FF0000905E0FFF7C1FF5FF000095FF071
:1005F00000083800C0B2002840F04A814046C0B22E
:1006000000280ED002285CD036D3042800F02481C4
:100610007BD35FF0000800275FF00009E9E719F1DC
:100620000109DFF8388640F20161404600F024FD00
:10063000002804D0484680B2B0F57A7FEFD31FFA85
:1006400089F9B9F57A7FCED2404600F0F1FCDFF8A7
:1006500008862021404600F085FB2021404600F01E
:1006600081FB2021404600F07DFB5FF000095FF038
:100670000108BEE719F10109DFF8E0854FF4A06138
:10068000404600F0F9FC002804D1484680B2B0F59D
:100690007A7FEFD31FFA89F9B9F57A7F0AD27FF012
:1006A0000102A021404600F0AEFC5FF000095FF0BF
:1006B000020803E05FF000095FF0000899E719F114
:1006C000010940F2015ADFF894855146404600F096
:1006D000D3FC002804D1484680B2B0F57A7FEED32F
:1006E0001FFA89F9B9F57A7F08D25146404600F0E1
:1006F000D2FC5FF000095FF0030803E05FF000093F
:100700005FF0000875E719F10109DFF8508540F244
:100710000751404600F0B0FC002804D1484680B2A2
:10072000B0F57A7FEFD31FFA89F9B9F57A7F09D24C
:10073000290089B2090AC9B2404600F083FC5FF083
:10074000000A05E05FF0000A002001E01AF1010A4A
:1007500040F202594946404600F08EFC002804D180
:10076000504680B2B0F57A7FF0D31FFA8AFABAF514
:100770007A7F07D22900C9B2404600F063FC5FF0DF
:10078000000A05E05FF0000A002001E01AF1010A0A
:100790004946404600F070FC002804D1504680B223
:1007A000B0F57A7FF2D3504680B2B0F57A7F4ED260
:1007B000DFF8ACB40321584600F098FC01208DF816
:1007C0001A00029401208DF81900002003903000D7
:1007D00080B20490DFF88C04009000208DF818009F
:1007E000002001904FF4405005906A46032158467E
:1007F00000F0BCFC4FF40061404600F02BFC0321EC
:10080000584600F049FD02220321584600F05EFDE3
:100810000028F8D04946404600F02EFC002807D1B9
:10082000504680B2B0F57A7F02D21AF1010AF1E7A0
:100830001FFA8AFABAF57A7F04D25FF000095FF0F6
:10084000040808E05FF000095FF0000803E05FF0D3
:1008500000095FF00008CCE6DFF8000400F0EDFBD3
:1008600001E019F10109DFF8F4030068800504D5FF
:10087000484680B2B0F57A7FF3D3484680B2B0F5EF
:100880007A7F04D25FF000095FF005080127B0E627
:100890004046C0B207B0BDE8F08F2DE9FC4100260C
:1008A000002400250020009003E0FFF75FFE0025F4
:1008B00000262000C0B2002840F090803000C0B276
:1008C000002809D001281FD002283BD004286DD071
:1008D00000250026EDE76D1CE04E40F2016130007E
:1008E00000F0CAFB002804D0280080B2B0F57A7F5F
:1008F000F1D3ADB2B5F57A7FD7D2300000F098FBD6
:1009000000250126D5E76D1CD44E4FF4A0613000C0
:1009100000F0B2FB002804D1280080B2B0F57A7F45
:10092000F1D3ADB2B5F57A7F08D27FF00102A021F4
:10093000300000F068FB0025022601E000250026BB
:10094000B7E76D1C40F20158C44F4146380000F033
:1009500093FB00280BD140F20A51380000F08CFBC9
:10096000002804D1280080B2B0F57A7FE9D3ADB277
:10097000B5F57A7F17D24146380000F07DFB00289C
:1009800009D04146380000F086FB0025380000F011
:1009900054FB012409E040F20A51380000F07BFBCF
:1009A0000025042601E00025002682E7AB4800F080
:1009B00044FB00E06D1CA9480068800504D52800B0
:1009C00080B2B0F57A7FF5D3ADB2B5F57A7F02D2B9
:1009D0000025002601E0002500266AE7BDE8F38136
:1009E0001CB500225FF07E500090A24C9DF80310D1
:1009F00013009BB2E154521C9DF8021013009BB2ED
:100A0000E154521C9DF8011013009BB2E154521C9A
:100A10009DF8001013009BB2E154521C00909DF809
:100A20000300110089B26054521C9DF802001100AD
:100A300089B26054521C9DF80100110089B26054C3
:100A4000521C9DF80000110089B26054521C002015
:100A500000909DF80300110089B26054521C9DF86B
:100A60000200110089B26054521C9DF8010011006F
:100A700089B26054521C9DF80000110089B2605484
:100A8000521C002000909DF80300110089B26054B0
:100A9000521C9DF80200110089B26054521C9DF84E
:100AA0000100110089B26054521C9DF80000110031
:100AB00089B26054521C002000909DF80000110083
:100AC00089B26054521C322000909DF8030011003E
:100AD00089B26054521C9DF80200110089B2605422
:100AE000521C9DF80100110089B26054521C9DF8FF
:100AF0000000110089B26054521C92B210212000F3
:100B0000FFF716FB4FF41940ADF800009DF8010007
:100B100020709DF800006070022200212000FFF785
:100B200007FB13BD3EB50025534C4FF40072102156
:100B30002000FFF786FB280080B2205C8DF80300C0
:100B40006D1C280080B2205C8DF802006D1C28000E
:100B500080B2205C8DF801006D1C280080B2205C02
:100B60008DF800006D1C454800990268116229004B
:100B700089B2615C8DF803106D1C290089B2615C3B
:100B80008DF802106D1C290089B2615C8DF801108E
:100B90006D1C290089B2615C8DF800106D1C0099F4
:100BA0000268D163290089B2615C8DF803106D1C65
:100BB000290089B2615C8DF802106D1C290089B290
:100BC000615C8DF801106D1C290089B2615C8DF8A3
:100BD00000106D1C009902685162290089B2615CA5
:100BE0008DF803106D1C290089B2615C8DF802102C
:100BF0006D1C290089B2615C8DF801106D1C290003
:100C000089B2615C8DF800106D1C00990268116456
:100C1000290089B2615C026882F854106D1C2900B9
:100C200089B2615C8DF803106D1C290089B2615C8A
:100C30008DF802106D1C290089B2615C8DF80110DD
:100C40006D1C290089B2615C8DF800106D1C009943
:100C50000068816537BD0000000801400058004071
:100C60000000024010580040140C0140000C0140EC
:100C7000100C01400002002000000020183E000877
:100C8000F0B40024002411F00F04CD060DD5042A81
:100C900009D154F0030410F13C0212681A4310F118
:100CA0003C052A6001E022431400002523E0482986
:100CB0001FD10122AA401A4010F110073A6018E033
:100CC0001A00EA40D20715D506680F272A00D2B2CB
:100CD00092009740BE432A00D2B2920014FA02F268
:100CE00016432829E3D10122AA401A4010F1140723
:100CF0003A6006606D1C2A0092B2082AE0D30825EB
:100D000027E0482922D10122AA401A4010F11007F9
:100D10003A601BE01A00EA40D20719D5021D166896
:100D20000F272A00083AD2B292009740BE432A0009
:100D3000083AD2B2920014FA02F216432829E0D1FE
:100D40000122AA401A4010F114073A60021D1660F1
:100D50006D1C2A0092B2102ADCD3F0BC7047103010
:100D600001607047143001607047D2B2002A02D08F
:100D70001030016001E014300160704708300068F5
:100D8000084201D0012000E0002070470C300068CC
:100D9000084201D0012000E00020704730B400225A
:100DA000002200220022002802D51E4A146801E019
:100DB0001D4A1468C0F3034283B210F44015B5F520
:100DC000401F08D1220032F0E062174C256835F050
:100DD000E065256013E0C50207D5032515FA02F288
:100DE00034EA020252F0E06209E00200520DD2B28F
:100DF000120113FA02F234EA020252F0E062C9B2BE
:100E0000002906D00100490DC9B209018B401343E6
:100E10001A00002802D50348026001E0024802607F
:100E200030BC70471C0001400400014010B5DFF8E1
:100E3000A812884204D0DFF8A412884209D011E039
:100E400040F21544200000F094FA200000F0A4FACB
:100E500008E040F21644200000F08BFA200000F079
:100E60009BFAFFE710BD70B506000D001400002DC1
:100E700000D1FEE7022000F0A2FADFF86412B0FB16
:100E8000F1F23C2A00D33C22311D0968C909C9018D
:100E90001143331D1960DFF84C128D4224D2DFF864
:100EA0004012B0FBF1F1491C3C2904D33C2116F15E
:100EB0002002116009E0032904D2022116F1200268
:100EC000116002E016F1200211606900B0FBF1F040
:100ED000042800D2042016F11C0109680005000D49
:100EE00008431C36306073E0DFF8FC118D4238D2C5
:100EF0004FF496714A434FF47A71B2FBF1F1491CF9
:100F000016F120021160002C0CD103214D43B0FBDF
:100F1000F5F016F11C01096831F4804116F11C024C
:100F200011600BE019214D43B0FBF5F016F11C01E7
:100F3000096851F4804116F11C021160010501D1CC
:100F400050F0010016F11C01096851F4004116F13E
:100F50001C02116016F11C01096808431C36306040
:100F600036E078214A434FF47A71B2FBF1F1491C23
:100F700016F120021160002C0CD103214D43B0FB6F
:100F8000F5F016F11C01096831F4804116F11C02DC
:100F900011600BE019214D43B0FBF5F016F11C0177
:100FA000096851F4804116F11C02116016F11C0110
:100FB000096851F4004116F11C02116016F11C0180
:100FC0000968084316F11C01086001209036306062
:100FD00070BD10B40024046834F0020421430160A1
:100FE0009B059B0D1A430830026010BC7047012915
:100FF00004D1016851F48061016003E0016831F4BB
:1010000080610160704712F1020F02D14908490066
:1010100001E051F00101103001607047016851F0AA
:10102000010101607047016849084900016070478B
:10103000016851F4807101607047016851F40071DA
:1010400001607047C9B2103001607047103000680D
:10105000C0B270470022021D126832F400621143D0
:10106000001D016070470022021D126832F4805298
:101070001143001D016070470A0012B2C2F38912C9
:101080001018006811F01F01C840C00701D50120E9
:1010900000E0002070470A0040F2015312B29A4269
:1010A00005D110F1140109681830006812E00A0037
:1010B00012B2C2F389131B180A0012B2C2F38912CA
:1010C00010180068012211F01F0112FA01F130EA34
:1010D00001011960704700000054004000580040B2
:1010E00040420F00A1860100811A060038B50400B5
:1010F0000D002900C9B2200000F0F3F8002800D14B
:10110000FEE714202900C9B200FB014108312A0082
:10111000D2B200FB024208321268520852000A6042
:101120002900C9B200FB0141083100220A602900F0
:10113000C9B200FB01410C3100220A602900C9B28A
:1011400000FB0141103100220A602900C9B200FBF6
:101150000140143000210160201D01680F22EDB212
:10116000A80082401143241D216031BD70B50400E8
:101170000D0016002900C9B2200000F0B2F80028C6
:1011800000D1FEE714212800C0B201FB004010305E
:10119000326802602800C0B201FB00401430B2681F
:1011A00002602800C0B201FB00400C30326992B2EC
:1011B00002602800C0B201FB00400830026832F42F
:1011C0007C527368F0680343706903431A43280034
:1011D000C0B201FB004008300260307E01280ED111
:1011E0002800C0B201FB004008302A00D2B201FB47
:1011F00002420832126852F0400202600DE02800FC
:10120000C0B201FB004008302A00D2B201FB02420A
:101210000832126832F040020260707E01280ED15E
:101220002800C0B201FB004008302A00D2B201FB06
:1012300002420832126852F0800202600DE028007B
:10124000C0B201FB004008302A00D2B201FB0242CA
:101250000832126832F080020260B07E00280DD1A0
:101260002800C0B201FB00400830EDB201FB05448C
:101270000834216831F0100101600CE02800C0B290
:1012800001FB00400830EDB201FB05440834216841
:1012900051F01001016070BD38B504000D00290047
:1012A000C9B2200000F01DF8002800D1FEE714208C
:1012B0002900C9B200FB01410831EDB200FB054431
:1012C0000834206850F00100086031BD0368C9B2DD
:1012D00088008240134201D0012000E00020C0B20B
:1012E000704702000120054B9A4203D1C9B205297B
:1012F00000DB0020C0B27047000000000004024084
:1013000010B540F2167000F021F84FF4406303224C
:101310001C210B48FFF7B4FC0A4C00220A492000AC
:10132000FFF7A1FDA023002200212000FFF751FEBE
:101330002000FFF773FE01212000FFF758FE10BDCB
:10134000000C014000580040801A060010B4DFF87D
:101350006C21010009B212EB91110B68012410F00D
:101360001F018C40234300B212EB9012136010BC9B
:10137000704710B4DFF84421010009B212EB91115B
:101380000B68012410F01F018C40234300B212EBC4
:101390009012136010BC704710B4DFF820210100D8
:1013A00009B212EB91110B68012410F01F018C405F
:1013B000A34300B212EB9012136010BC704770B5DB
:1013C00088B00400002504A83F49102200F08AF8E4
:1013D00002A83E49D1E90023C0E9002368463C4900
:1013E000D1E90023C0E9002335490868C0F3810032
:1013F000002803D0022805D002D335E0354834E078
:10140000354832E0086810F48030B0F5803F10D1E4
:101410002C48006810F08040002801D12E4800E0E0
:101420002E480A6812F40032B2F5003F02D140089B
:1014300000E02B480A68C2F383420B681B0101D508
:1014400052F010020B685B0001D552F020020F2A07
:1014500001D2921C06E0B2F10F03302B01D2521CD4
:1014600000E03F22504300E01A480A68C2F303122A
:1014700004AB9B5C0200DA400B68C3F3022302AEAC
:10148000F65C1300F3400968C1F3C2216E46765C36
:101490001100F140E4B2002C05D0022C07D004D397
:1014A000032C06D007E0050005E0150003E01D0051
:1014B00001E00D00FFE7280008B070BD00100240F9
:1014C000041002402C100240DC3D0008083E0008D9
:1014D000103E000800127A000024F400006CDC02C8
:1014E00000093D00103A07D330B4B1E83810103A83
:1014F000A0E83810F9D230BC530724BFB1E8081077
:10150000A0E8081044BF51F8043B40F8043BD20760
:1015100024BF31F8022B20F8022B44BF0B78037054
:101520007047121F17D35B0009D151F8043B20F814
:10153000023B1B0C121F20F8023BF6D20BE051F8C5
:10154000043B00F8013B1B0A20F8023B1B0C121F56
:1015500000F8013BF3D238BF121D521E24BF11F810
:10156000013B00F8013BF8D8704730B4002513E088
:1015700050F8042BD30744BFA9F101039A18091F9F
:10158000042942F8045BFAD213468C0744BF158045
:101590009B1CC90748BF1D7050F8041B0029E7D1E8
:1015A00030BC704738B588B00400002040F2197094
:1015B000FFF7CCFEDFF8D4564FF4807303224821A6
:1015C0002800FFF75DFB4FF4007303221821280069
:1015D000FFF756FB01215FF4EA10FFF7DFFBDFF8AE
:1015E000B056280000F072FB00208DF804000020A7
:1015F0008DF8050000208DF8060000208DF807000A
:1016000000208DF8080000208DF8090000208DF8DA
:10161000000000208DF8010004208DF80200032056
:101620008DF80300200080B2B0F57A7F03D1062048
:10163000ADF80A001AE0200080B2B0F5FA7F03D1BD
:101640000C20ADF80A0011E0200080B2FA2803D186
:101650001820ADF80A0009E0A4B27D2C03D1302097
:10166000ADF80A0002E01820ADF80A00694628002B
:1016700000F0A2FB0020ADF816000020ADF8180025
:101680000120ADF81A000020ADF80C000020ADF8E4
:101690000E000020ADF810000020ADF8120001206F
:1016A000ADF8140001208DF81C0003A800F015FC13
:1016B0001021280000F0C8FD04220021152000F0B0
:1016C000E0FD09B030BD38B588B00024684600F0B0
:1016D000C1FA012807D1DFF8BC059DF80010090107
:1016E000084400F0A5F8DFF8B055286890F85400D9
:1016F00001286AD12868826D0023DFF8A00500F078
:101700005EFE002861D003A9022000F0EDFA2868EF
:10171000807829680978D03151EA0021DFF8800506
:101720000143049100208DF8150004208DF8140069
:101730002868406901909DF8070003A92200D2B2F1
:101740001144C872641C9DF8060003A92200D2B29D
:101750001144C872641C9DF8050003A92200D2B28E
:101760001144C872641C9DF8040003A92200D2B27F
:101770001144C872641C2868806901909DF80700B4
:1017800003A92200D2B21144C872641C9DF806005D
:1017900003A92200D2B21144C872641C9DF805004E
:1017A00003A92200D2B21144C872641C9DF804003F
:1017B00003A92200D2B21144C872641C8DF81640ED
:1017C00003A9DFF8CC0400F0F9FB09B030BD78B50F
:1017D00085B005000E0000246946022000F084FA5E
:1017E000DFF8B4040168897800680278D03252EAE0
:1017F0000122DFF8B0040243019200208DF80900B5
:1018000004208DF8080068462100C9B20844C5725A
:10181000641C68462100C9B20844C672641C8DF875
:101820000A406946DFF8680400F0C8FB06B070BDE6
:101830002DE9F84187B0050000200020EE68EF6830
:101840003F0AE868000C10F03F00E968890D11F0CC
:101850000F01DFF844443A00D2B223681B78D0333A
:101860009A4240F0F481C9B20C2940F0F08121681D
:101870008E70C0B233280CD0352800F0D0803A28C2
:1018800000F005813B2800F09B813C2800F0DD81C1
:10189000DCE16878012840F08780A878012840D1F1
:1018A00068798DF80300A8798DF80200E8798DF841
:1018B0000100287A8DF800000098012802D00098D5
:1018C000002871D1DFF8E083012220214046FEF795
:1018D000B8FC0098216881F8540098F8000000993D
:1018E000C9B2884260D0DFF8C403009901700122B8
:1018F0002021FEF71DFC012220214046FEF7A1FC1D
:1019000098F800008DF8030098F801008DF80200A7
:1019100098F802008DF8010098F803008DF8000097
:1019200042E0A87802283FD168798DF80300A879B1
:101930008DF80200E8798DF80100287A8DF8000012
:101940002068806D00F0CCFD01008846009800F012
:10195000C7FD414600F06DFD002825D000982168A4
:101960008865D2489DF8031001709DF802104170FF
:101970009DF8011081709DF80010C1700422212192
:10198000FEF7D6FBC84C042221212000FEF759FCAB
:1019900020788DF8030060788DF80200A0788DF82B
:1019A0000100E0788DF8000002A9022000F09CF907
:1019B000E868000C0004E860E86803900399F6B258
:1019C000360456FA87F00143039100208DF8110088
:1019D00004208DF8100001208DF8130068788DF830
:1019E000140000208DF8150000208DF816009DF8D9
:1019F00003008DF817009DF802008DF818009DF87F
:101A000001008DF819009DF800008DF81A000820DB
:101A10008DF8120002A99E4800F0D0FA16E102A942
:101A2000022000F061F9E868000C0004E860E86852
:101A300003900399F6B2360456FA87F001430391F6
:101A400000208DF8110004208DF8100000208DF882
:101A50001300206840788DF8140001208DF81500DF
:101A600000208DF8160000208DF8170000208DF85A
:101A7000180000208DF8190000208DF81A000820A9
:101A80008DF8120002A9824800F098FADEE068782A
:101A9000012846D1A878012820D12068407F00285D
:101AA0000CD100220023824800F089FC0022002390
:101AB000804800F084FC01202168487768798DF81F
:101AC0000300A8798DF80200E8798DF80100287AE2
:101AD0008DF8000000982168086370E0A87802285B
:101AE0006DD12068407F012869D168798DF80300A5
:101AF000A8798DF80200E8798DF80100287A8DF830
:101B000000000098216848632068007F002856D1B3
:101B100000220023674800F052FC0120216808776A
:101B20004DE0687802284AD1A878012822D120689F
:101B300090F8390000280DD1002200235E4800F003
:101B40003EFC002200235D4800F039FC01202168A2
:101B500081F8390068798DF80300A8798DF80200C2
:101B6000E8798DF80100287A8DF800000098216846
:101B7000C86424E0A878022821D1206890F83900B0
:101B800001281CD168798DF80300A8798DF802002E
:101B9000E8798DF80100287A8DF800000098216816
:101BA0000865206890F83800002808D1002200233A
:101BB000424800F004FC0120216881F8380045E02B
:101BC00002A9022000F090F8E868000C0004E86028
:101BD000E86803900399F6B2360256FA87F001439B
:101BE000039100208DF8110004208DF8100020686A
:101BF000406900909DF803008DF813009DF80200E5
:101C00008DF814009DF801008DF815009DF8000076
:101C10008DF816002068806900909DF803008DF80B
:101C200017009DF802008DF818009DF801008DF84E
:101C300019009DF800008DF81A0008208DF8120098
:101C400002A9134800F0BAF900E0FFE7FFE708B087
:101C5000BDE8F0811A4A11781A4B1B78994203D1DA
:101C60001949097800290FD1117801701078401CAA
:101C7000107010781E2801DB0020107012480178C7
:101C8000491C0170012000E000207047000C014059
:101C90000064004000040020183E00086007002097
:101CA00000003B0300003A03000000200002002077
:101CB00028070020380700203007002040070020B8
:101CC00084070020850700208607002010B5DFF874
:101CD0008815884207D140F219442000FFF749FBDC
:101CE0002000FFF759FB10BD002900D1FEE7C0B26C
:101CF000002805D002282ED01AD3032842D05AE05B
:101D0000002048710020C8710020887140F2FF3027
:101D1000488100200872002048700220887000204E
:101D2000C8700020087100204872002008707047B9
:101D30000120C8810020087400200881002008804C
:101D400000204880002088800020C88000208881F2
:101D500000204881EBE7002005E000220300DBB211
:101D60000B44DA72401C0200D2B2082AF5D30020DC
:101D7000887200204860002008720020487200200D
:101D80000860D4E7002005E000220300DBB20B442A
:101D9000DA72401C0200D2B2082AF5D30020887201
:101DA00000204860002008720020C874002048729B
:101DB00000200860BBE7FEE730B402000B004FF6DE
:101DC000FF7001000024156835F0020515601568E4
:101DD00055F00105156000E0491E151D2D68ED0741
:101DE00001D40029F8D1111D0968C90701D40024C4
:101DF0006FE019785D782D0615F0407555EA81750C
:101E00009978090411F470210D43D978090511F46A
:101E1000E0010D435989491E8905890D0D4312F1D1
:101E20001C010D601979012904D1116851F080015C
:101E3000116003E0116831F08001116059790129C6
:101E400004D1116851F04001116003E0116831F0D4
:101E5000400111609979012904D1116851F02001E4
:101E6000116003E0116831F020011160D979012976
:101E700004D1116851F01001116003E0116831F0D4
:101E800010011160197A012904D1116851F008017B
:101E9000116003E0116831F008011160597A0129DD
:101EA00004D1116851F00401116003E0116831F0B0
:101EB00004011160116849084900116000E0401EEA
:101EC000111D0968C90701D50028F8D1002800D0E4
:101ED00001242000C0B230BC704770B40021012141
:101EE000428911FA02F2DFF87433196851F00101E6
:101EF0001960DFF86C43216891432160C189002992
:101F000018D1DFF860130D6895430D60C1884588CE
:101F100055EA01454189DFF8506316EBC10635608B
:101F20008188058855EA01454189DFF8406316EB51
:101F3000C1063560C189012918D1DFF828130D6861
:101F400015430D600188458855EA01454189DFF850
:101F5000186316EBC10635608188C58855EA0145CE
:101F60004189DFF8086316EBC106356081890029D5
:101F700005D1DFF8FC120D6895430D6004E0DFF831
:101F8000F0120D6815430D600189002905D1DFF8B5
:101F9000E4120D6895430D6004E0DFF8D8120D6877
:101FA00015430D60007C012802D1206802432260A5
:101FB000186840084000186070BC704730B40022B8
:101FC00010F108021268520101D500220EE010F152
:101FD00008021268120101D5012207E010F108027F
:101FE0001268D20001D5022200E003221300DBB206
:101FF000032B01D103208FE01300DBB210EB03139E
:1020000013F5C0731B6813F001031400E4B210EB66
:10201000041414F5C07423600B7A002B13D1130041
:10202000DBB210EB031313F5C0731B680C684D7A19
:1020300055EA44552B431400E4B210EB041414F594
:10204000C074236014E01300DBB210EB031313F52C
:10205000C0731C684B680D7A55EAC3054B7A1D4363
:102060002C431300DBB210EB031313F5C0731C6099
:102070001300DBB210EB031313F5C2731B681B09CB
:102080001B011400E4B210EB041414F5C2742360B5
:102090001300DBB210EB031313F5C2731C688B7AC9
:1020A0001C431300DBB210EB031313F5C2731C6067
:1020B0008B7B4C7B240454EA03640B7B54EA03249B
:1020C000CB7A1C431300DBB210EB031313F5C4737C
:1020D0001C608B7C4C7C240454EA03640B7C54EA23
:1020E0000324C97B0C431100C9B210EB011111F597
:1020F000C6710C601100C9B210EB011111F5C0716D
:10210000096851F001011300DBB210EB031010F568
:10211000C07001601000C0B230BC70470B00DBB271
:1021200010EB031313F5D8731B6813F00403137239
:10213000137A002B09D10B00DBB210EB031313F55C
:10214000D8731B685B0D136008E00B00DBB210EB6B
:10215000031313F5D8731B68DB0853600B00DBB265
:1021600010EB031313F5D8731B6813F002035372BB
:102170000B00DBB210EB031313F5DA731B681B0AB9
:10218000D3740B00DBB210EB031313F5DA731B6887
:1021900013F00F0393720B00DBB210EB031313F574
:1021A000DC731B68D3720B00DBB210EB031313F567
:1021B000DC731B681B0A13730B00DBB210EB0313F9
:1021C00013F5DC731B681B0C53730B00DBB210EBB5
:1021D000031313F5DC731B681B0E93730B00DBB248
:1021E00010EB031313F5DE731B68D3730B00DBB224
:1021F00010EB031313F5DE731B681B0A13740B003B
:10220000DBB210EB031313F5DE731B681B0C537466
:102210000B00DBB210EB031313F5DE731B681B0E10
:102220009374C9B2002907D110F10C01096851F06B
:1022300020010C30016006E010F11001096851F036
:10224000200110300160704710F114021268114330
:1022500014300160704700000064004000660040D8
:102260001C6600400C66004040660040446600402A
:1022700004660040146600402C4908432C4908605D
:10228000704770B504000D001600002000200020EB
:102290002748016811F4E061B1F5E06F02D1002038
:1022A000042129E0016811F4E061B1F5C06F02D1A9
:1022B0000120032120E0016811F4E061B1F5A06F75
:1022C00002D10220022117E0016811F4E061B1F5AA
:1022D000806F02D1032001210EE0006810F4E0605D
:1022E000B0F5407F02D10420002105E04FF4A0604A
:1022F000FFF7C2FF02200221EDB2D0F104008540B9
:10230000F6B20F20D1F10401C840064035432D013B
:1023100008482100C9B24554012114F01F00814032
:102320000548E4B2641140F8241070BD0000FA05BD
:102330000CED00E000E400E000E100E01CB500F07E
:10234000DDF800F080FA7D20FFF72CF94FF47A7069
:1023500000F05EF800F07EF85A4C022200212000C6
:10236000FDF76FFF20788DF8010060788DF8000090
:10237000BDF80000B0F5194F01D0FEF731FBFEF7B4
:10238000D1FB00F0C7F8FFF79EF900F0AFFB00F0BB
:102390006CFE4FF47A7200234B4800F010F80028CE
:1023A000EFD04A4C80212000FEF7F0FCD0F1010074
:1023B0000200D2B280212000FEF7D7FCE1E7F0B4A2
:1023C0000021434CD4E90045002B04D1002A02D15E
:1023D000C0E900450FE0D0E90067A41BBD419D4264
:1023E00009D301D8944206D3D0E90045A2186B4125
:1023F000C0E9002301210800C0B2F0BC704704E02E
:102400000B780370491C401C521E012AF8DA7047F1
:10241000D0B42F4CD4E90023D4E900670023B61AC6
:102420009F4100218F42F7D301D88642F4D3D0BC1C
:10243000704780B500F058FE002100F095FE01D2F3
:1024400090F00040234900F0A1FE01D8012000E0F7
:10245000002002BD10B500201F4800210268516015
:102460000021026891600021026882F85410002166
:102470001EE01C2203680C00E4B2544323440024F1
:102480009C7703680C00E4B2544323440024DC77B7
:1024900003680C00E4B25443234400245C770368CF
:1024A0000C00E4B202FB04F21A4400231377491C27
:1024B0000A00D2B2022ADCDB20210848FEF74FFCDA
:1024C00010BD000000000020700700200010014037
:1024D0006807002018B7D138183E000800080140EE
:1024E00000280AD0B0FA80F18840D1F19D01C905D9
:1024F000020672F1004241EB1020704780B500F0F7
:102500000FF800F023F800F087F9FEF7F9FE00F06D
:1025100091F901BD80B500F096F900F011FA01BD06
:1025200080B540F20260FEF711FF40F20360FEF753
:102530000DFF40F20460FEF709FF4FF4A060FEF7C4
:1025400005FF4FF4C060FEF701FF01BD10B5DFF8D5
:1025500060452023032210212000FEF791FB4FF459
:102560008073032210212000FEF78AFBDFF8444528
:102570004FF48053032248212000FEF781FB4FF4E3
:102580000053032248212000FEF77AFB4FF48043DA
:10259000032248212000FEF773FB4FF4004303227F
:1025A00048212000FEF76CFBDFF80C458023032256
:1025B00010212000FEF764FB4FF400530322482152
:1025C0002000FEF75DFB4FF48043032248212000EA
:1025D000FEF756FB10BD30B593B004002000C0B22A
:1025E00000283ED140F20B60FEF7B0FE4FF480535E
:1025F00003224821DFF8B804FEF742FBDFF8BC54A1
:10260000280000F0D5FD0FA800F03CFE0020ADF83A
:102610003C000020ADF83E000020ADF840004FF631
:10262000FF7011900020ADF842000FA9280000F0C3
:1026300037FE7021280001F0F1F80721280001F091
:10264000FCF84021280000F08BFE4021280000F01B
:1026500080FE002201211A20FFF713FE280000F05F
:102660006EFE2000C0B2012843D14FF4E060FEF7B7
:102670006DFE012303224821DFF83404FEF700FB3E
:102680005FF0804000F094FD0BA800F0FBFD0020FF
:10269000ADF82C000020ADF82E000020ADF8300081
:1026A0004FF6FF700D900020ADF832000BA95FF0DF
:1026B000804000F0F5FD70215FF0804001F0AEF841
:1026C00007215FF0804001F0B8F840215FF08040C2
:1026D00000F046FE40215FF0804000F03AFE00220C
:1026E00001211C20FFF7CDFD5FF0804000F027FEA8
:1026F00090E02000C0B202285BD14FF400730322A7
:102700001821DFF8B403FEF7BBFA0121DFF8B003AC
:10271000FEF744FB40F20170FEF718FEDFF8A44319
:10272000200000F045FD7720ADF81C000020ADF83A
:102730001E000020ADF82000182009900020ADF800
:10274000220000208DF8280007A9200000F0A8FD35
:102750000020ADF804000120ADF800000020ADF825
:1027600006000020ADF802000020ADF808000020AF
:10277000ADF80A006A460321200000F008FE0C2292
:102780000321200000F0E8FF60220321200000F078
:1027900097FF00220321200000F0F4FF0121200018
:1027A00000F0E2FD200000F0CFFD200000F0C7FDAA
:1027B00030E0E4B2032C2DD140F20270FEF7C6FDEA
:1027C000C14C200000F0F4FC03A800F05BFD772072
:1027D000ADF80C000020ADF80E000020ADF81000A0
:1027E00040F2E73005900020ADF8120003A9200068
:1027F00000F056FD0121200000F0B2FD0121200073
:1028000000F0A7FD002200211E20FFF73AFD200066
:1028100000F095FD13B030BD80B50020FFF7DBFE62
:102820000120FFF7D8FE0220FFF7D5FE0320FFF7B7
:10283000D2FE01BD80B5032140F6A66000F01AFC6F
:1028400000F00EFC01BD38B5A04C2068007810F0F7
:102850000F0021680870974D4FF480512800FEF753
:102860008DFA012806D12068007850F00100216817
:10287000087005E02068007810F0FE0021680870FC
:102880004FF400512800FEF779FA012806D120689C
:10289000007850F002002168087005E02068007898
:1028A00010F0FD00216808704FF480412800FEF709
:1028B00065FA012806D12068007850F004002168EC
:1028C000087005E02068007810F0FB0021680870AF
:1028D0004FF400412800FEF751FA012806D1206884
:1028E000007850F008002168087005E02068007842
:1028F00010F0F7002168087031BDF0B40022002309
:10290000002200255FF0FF3600220BE01400E4B245
:1029100050F82440E318A54200D22500B44200D26A
:102920002600521C14000F00E4B2FFB2BC42EDD3EB
:102930005B1B9B1BC9B2891EB3FBF1F0F0BC704757
:102940002DE9F0415C4C4FF400512000FEF716FADF
:10295000002807D15D480168497811F0FE01006840
:10296000417006E059480168497851F0010100685A
:1029700041704FF480412000FEF700FA002807D193
:1029800052480168497811F0FD010068417006E085
:102990004E480168497851F00201006841704C4C82
:1029A000282200232000FFF70AFD002812D0494901
:1029B000494A13681920434348480D7840F82530A8
:1029C000002010600878401C08700878192801DB86
:1029D000002008702822002314F10800FFF7EFFC04
:1029E000002813D03B493C4A3C484B7800EB83031A
:1029F0005468192044435C66002050604878401CAD
:102A000048704878192801DB00204870334C1921A0
:102A10002000FFF772FF2D4D29684860304E314F7E
:102A2000DFF8C48028684068FFF75AFD010040467F
:102A300000F012FF0100380000F00EFF010030002E
:102A400000F076FF2968C8602868C0682968096AAC
:102A500000F002FF2968496A00F06AFF29684861AE
:102A6000192114F16400FFF748FF2968886028687D
:102A70008068FFF735FD0100404600F0EDFE0100E3
:102A8000380000F0E9FE0100300000F051FF296835
:102A90000861286800692968C96B00F0DDFE2968B3
:102AA000096C00F045FF29688861BDE8F0810000ED
:102AB00000080140000C014000100140002C0140C2
:102AC000000C1A000004004000080040183E0008F6
:102AD000180700208007002048070020E00500209C
:102AE00000A49CC4666620406F12833A80B5002023
:102AF00000F004F8012000F001F801BD2DE9FE4FBF
:102B000004001C25DFF8306530682100C9B2694334
:102B10000844407F002837D10020DFF8201522002C
:102B2000D2B221F812000020DFF814152200D2B230
:102B300041F822000020DFF80C152200D2B241F843
:102B4000220030682100C9B2694308440021816233
:102B500030682100C9B2694308440021C16230686D
:102B60002100C9B26943084400210177306821007F
:102B7000C9B269430844002181773068E4B26C43EC
:102B800020440021C17754E243F698220023DFF865
:102B9000B804FFF714FC002806D03068E4B26C4398
:102BA00020440021417744E230682100C9B26943E2
:102BB0000844007F002804D0022800F0338149D364
:102BC0000AE24FF47A720023DFF880042100C9B2D0
:102BD00000EBC100FFF7F3FB002834D0DFF85C7492
:102BE0002000C0B237F8100005282CDADFF8508436
:102BF0002000C0B258F8201030682200D2B200EB9A
:102C00008200C06800F094FE2100C9B248F821009B
:102C1000DFF830842000C0B258F82010306822005D
:102C2000D2B26A431044006B00F082FE2100C9B2A8
:102C300048F821002000C0B237F81000401C2100E5
:102C4000C9B227F811000020DFF804142200D2B224
:102C50008854C1E1DFF8F8732000C0B2385C3168F5
:102C60002200D2B26A431144097F884250D0DFF873
:102C7000D083DFF8C89330682100C9B2694300EB04
:102C8000010A2000C0B239F81000FFF729FC01004A
:102C90002000C0B258F8200000F0BCFECAF828009E
:102CA000DFF8A0A330682100C9B2694300EB010B33
:102CB0002000C0B239F81000FFF712FC010020001C
:102CC000C0B25AF8200000F0A5FECBF8300000207A
:102CD0002100C9B229F8110000202100C9B248F82A
:102CE000210000202100C9B24AF8210030682100EB
:102CF000C9B269430844007F2100C9B27854002258
:102D00000023D2482100C9B200EBC100FFF757FBF6
:102D10004FF47A720023CD482100C9B200EBC10004
:102D2000FFF74DFB00282BD0C54F2000C0B257F84D
:102D3000201030682200D2B200EB8200C06800F0A0
:102D4000F7FD2100C9B247F82100BE4F2000C0B2F4
:102D500057F8201030682200D2B26A431044406B0A
:102D600000F0E6FD2100C9B247F82100B348210078
:102D7000C9B230F81110491C2200D2B220F812104A
:102D8000AE4F2000C0B237F81000052849DBDFF84D
:102D9000B08230682100C9B2694300EB010920000C
:102DA000C0B237F81000FFF79BFB01002000C0B253
:102DB00058F8200000F02EFEC9F82C00DFF88492AD
:102DC00030682100C9B2694300EB010A2000C0B29B
:102DD00037F81000FFF784FB01002000C0B259F85B
:102DE000200000F017FECAF8340000202100C9B20C
:102DF00027F8110000202100C9B248F82100002066
:102E00002100C9B249F8210030682100C9B26943E4
:102E1000084431682200D2B26A431144097F491C38
:102E20000177D9E0002030682100C9B26943084425
:102E30000221C17730682100C9B269430844006BA0
:102E400031682200D2B26A431144496B00F08CF918
:102E500080F0BB8030682100C9B269430844406BF0
:102E600031682200D2B26A431144096B00F03CF988
:102E7000070030682100C9B269430844C06A31685C
:102E80002200D2B26A431144896A00F02DF9010090
:102E9000380000F0BFFD6F4900F078F900F295802E
:102EA0006D4900F061F980F0908031682200D2B263
:102EB0006A431144086231682200D2B26A4301EBCE
:102EC000020731682200D2B26A431144C96A00F095
:102ED000C3FC010030682200D2B26A431044406B48
:102EE00000F002F978622000C0B2002831D13068C9
:102EF0002100C9B269430844006A0090574F9DF809
:102F0000030038709DF8020078709DF80100B870D9
:102F10009DF80000F870042210213800FDF708F930
:102F200030682100C9B269430844406A00909DF8A6
:102F3000030038709DF8020078709DF80100B870A9
:102F40009DF80000F870042218213800FDF7F0F811
:102F500034E02000C0B2012830D130682100C9B26D
:102F600069430844006A00903C4F9DF803003870A4
:102F70009DF8020078709DF80100B8709DF800007F
:102F8000F870042214213800FDF7D2F830682100CF
:102F9000C9B269430844406A00909DF80300387044
:102FA0009DF8020078709DF80100B8709DF800004F
:102FB000F87004221C213800FDF7BAF830682100AF
:102FC000C9B2694308440121C17730682100C9B200
:102FD000694308440121817730682100C9B26943FF
:102FE0000844807F012824D130682100C9B2694398
:102FF0000844C17F2000C0B2FEF7E9FB3068210021
:10300000C9B269430844C17F2000C0B2FEF7DFFBAC
:1030100030682100C9B269430844C17F2000C0B2B2
:10302000FEF7D5FB3068E4B26C43204400214177C1
:10303000FFE7BDE8F78F0000183E00087807002082
:1030400050070020580700204007002028070020D4
:10305000820700206766663F6766A63F0002002081
:103060004CF6CC401B49086070474AF6AA20194923
:103070000860704770B4184B1C000022154D45F2D3
:1030800055522A60154E326812F00102641E002C5F
:1030900001D0002AF6D1002A01D0002017E0C9B2E1
:1030A0000F4A1160316811F002015B1E002B01D044
:1030B0000029F7D1002901D0002008E080B20005E6
:1030C000000D084908604AF6AA202860012070BC5B
:1030D0007047000000300040FFFF0F000C30004040
:1030E000043000400830004090EA010F40F126848F
:1030F00081F00041421A3CBF801A89184FF0004C01
:10310000C0F3C752FF2A24D0C1F3C75313B3D21A56
:10311000D2F1190327DD4CEA01214CFA03F321EA2D
:103120000303D140C20D4CEA0020401834BF20EA0E
:103130000C004CEA5000D20553EA006373EB0C0C10
:1031400052EB1020420012F1807F38BF7047C00D53
:10315000C0057047490212BF9A4200EB5120F8E7C0
:10316000D2F11703D9D570474FF0807C1CEB400F8C
:1031700094BF1CEB410F05E040EA010C1CEB0C0F67
:1031800001D28842704718BF814270474FF0807C5F
:103190001CEB400F94BF1CEB410F05E040EA010C13
:1031A0001CEB0C0F01D28142704718BF8842704758
:1031B00010B5B0F1804F25D0DFF8E81488422AD04E
:1031C000DFF8E41488422FD0DFF8E014884234D0CE
:1031D000DFF8DC14884239D0DFF8D81488423ED0BA
:1031E000DFF8D414884204D0DFF8D01488423FD0EE
:1031F00047E040F20B342000FEF7BBF82000FEF75A
:10320000CBF83EE04FF48060FEF7B3F84FF48060F7
:10321000FEF7C2F835E040F201442000FEF7A9F8BD
:103220002000FEF7B9F82CE040F202442000FEF73F
:10323000A0F82000FEF7B0F823E040F2034420009D
:10324000FEF797F82000FEF7A7F81AE040F20444D2
:103250002000FEF78EF82000FEF79EF811E040F205
:1032600005442000FEF785F82000FEF795F808E0F9
:1032700040F20D342000FEF77CF82000FEF78CF8B9
:10328000FFE710BD002101800021418000218180E5
:103290004FF6FF7181600021C180002101737047EA
:1032A00010B40A8810F128031A60DFF80C34984231
:1032B00012D0B0F1804F0FD0DFF8E82390420BD04E
:1032C000DFF8E423904207D0DFF8E023904203D0F8
:1032D000DFF8E82390420BD1026832F070020260FE
:1032E00004684A881443046004688A8814430460AC
:1032F0008A6810F12C042260DFF8B42390420BD0CE
:10330000DFF8B023904207D0026832F440720260C6
:103310000468CA8814430460984203D0DFF89C23F1
:10332000904203D1097B10F13002116010F11401B9
:10333000096851F001011430016010BC7047016848
:1033400051F0010101607047016851F08001016096
:10335000704710F10C02126811430C300160704785
:10336000C943103001607047C9B2012907D110F17B
:103370004401096851F400414430016006E010F155
:103380004401096831F4004144300160704789B25A
:10339000002907D0022900F0D9806AD3032900F060
:1033A00042817EE110F1200109684908490010F1CD
:1033B0002003196010F1180109688908890010F1CB
:1033C0001803196010F120010B6811880B4310F1EC
:1033D00020010B6010F12001096831F0020110F1A9
:1033E0002003196010F120010B6891880B4310F144
:1033F00020010B60B049884202D0B049884237D1E1
:1034000010F12001096831F0040110F12003196066
:1034100010F120010B6851880B4310F120010B6063
:1034200010F12001096831F0080110F12003196042
:1034300010F120010B68D1880B4310F120010B60C3
:10344000011D096831F48071031D1960011D0B68AD
:1034500011890B43011D0B60011D096831F40071D6
:10346000031D1960011D0B6851890B43001D03608A
:1034700017E110F12001096831F0100110F120036B
:10348000196010F11801096831F4407110F1180346
:10349000196010F120010968138851EA031110F135
:1034A0002003196010F12001096831F0200110F1AA
:1034B0002003196010F120010968938851EA031173
:1034C00010F1200319607C49884202D07B49884270
:1034D0003BD110F12001096831F0400110F12003C7
:1034E000196010F120010968538851EA031110F1A5
:1034F0002003196010F12001096831F0800110F1FA
:103500002003196010F120010968D38851EA0311E2
:1035100010F120031960011D096831F48061031D59
:103520001960011D0968138951EA8301031D19609F
:10353000011D096831F40061031D1960011D09684E
:10354000528951EA8201001D0160AAE010F12001B8
:10355000096831F4807110F12003196010F11C0129
:1035600009688908890010F11C03196010F1200115
:103570000968138851EA032110F12003196010F142
:103580002001096831F4007110F12003196010F175
:1035900020010968938851EA032110F12003196082
:1035A0004549884202D0454988423BD110F120016B
:1035B000096831F4806110F12003196010F12001D5
:1035C0000968538851EA032110F12003196010F1B2
:1035D0002001096831F4006110F12003196010F135
:1035E00020010968D38851EA032110F120031960F2
:1035F000011D096831F48051031D1960011D09681E
:10360000138951EA0311031D1960011D096831F482
:103610000051031D1960011D0968528951EA021108
:10362000001D01603DE010F12001096831F4805176
:1036300010F12003196010F11C01096831F4407188
:1036400010F11C03196010F120010968138851EA78
:10365000033110F12003196010F12001096831F4E1
:10366000005110F12003196010F1200109689388BE
:1036700051EA033110F1200319600F49884202D04A
:103680000E4988420CD1011D096831F48041031DA7
:103690001960011D0968128951EA8211001D01603B
:1036A000FFE770470004004000080040000C0040A5
:1036B0000010004000140040002C01400034014084
:1036C00089B2002905D0022924D012D3032931D090
:1036D00041E010F11801096831F0700110F1180390
:1036E000196010F11801096892B20A43183002609B
:1036F00031E010F11801096831F4E04110F11803CC
:10370000196010F11801096892B251EA02211830CB
:10371000016020E010F11C01096831F0700110F126
:103720001C03196010F11C01096892B20A431C3095
:10373000026010E010F11C01096831F4E04110F161
:103740001C03196010F11C01096892B251EA0221B0
:103750001C300160FFE7704789B2002905D00229BB
:1037600009D005D3032909D00BE03430026008E00A
:103770003830026005E03C30026002E04030026018
:10378000FFE7704789B2002905D0022924D012D35F
:10379000032931D041E010F11801096831F0080126
:1037A00010F11803196010F11801096892B20A4368
:1037B0001830026031E010F11801096831F400613D
:1037C00010F11803196010F11801096892B251EA5A
:1037D00002211830016020E010F11C01096831F06D
:1037E000080110F11C03196010F11C01096892B264
:1037F0000A431C30026010E010F11C01096831F42A
:10380000006110F11C03196010F11C01096892B2EB
:1038100051EA02211C300160FFE7704710F10802F5
:10382000126832F0700210F108031A6010F10802F9
:103830001268114308300160704710F108021268E5
:10384000D208D20010F108031A6010F108021268C1
:103850001143083001607047FF2212EAD05C1DBF9F
:1038600012EAD153944593422BE09C44D30780EA5B
:1038700001021A4043EA002043EA0121A1FB003083
:10388000C04238BF40007CF17F010BDBFE294ADAE1
:103890005B0842EAC15153EA006373F1004C51EBFB
:1038A00010207047D1F1080CDCF120012FDB5B0800
:1038B00010FA01F10B4320FA0CF073F10041504172
:1038C000704794451CBF02EAD153934280EA01023B
:1038D00002F000421DD0400019D0490017D05BB95A
:1038E000634514D00902B1FA81F39940BCEB030C93
:1038F000C00140F00040C1E70002B0FA80FC10FABD
:103900000CF0B3EB0C0CC90141F00041B6E710001C
:10391000704740000AD0490008D010F1807F94BF62
:1039200011F1807F02E042F0FF407047D0437047C2
:1039300090EA010F7FF5DEAB81F00041431A4FF0B2
:1039400000423EBF5340C01AC91800BFD3095FEA06
:10395000D05C13EB400F34BFB3EB410F40E07CEB86
:10396000D1530CD342EA012122D8D1EB402009D314
:10397000400A28BF5FEA500140EBCC507047401A24
:1039800015D04002B0FA80F2521C9040400A4FEA33
:103990003C23B3EB026384BF00EB730007E040F409
:1039A00000001A16DB07C2F10102D040184370472D
:1039B000182BFCDC31FA03F202FA03F3591A38BF70
:1039C00042F00102D2EB40203CBF4000ACF1010CC0
:1039D0005FEACC5CC20572F100414CEB50207047AD
:1039E00013EB400F0FD2C94209D0ACEBD153022BDD
:1039F00003DB4902172BDDDD70479143401AC042BB
:103A0000D5D10020704713EB410FD0D36FF00000E9
:103A10007047000010B5FF2313EAD0541DBF13EA0E
:103A2000D1529C429A4239E0A41ADA0780EA010393
:103A3000134042EA012142EA0020421A3CBF641EC0
:103A400001EB4202090AB2FBF1FE01FB1E22120247
:103A5000B2FBF1F001FB10226EF30F201202B2FB59
:103A6000F1FE4EEA00207F3406DDFE2C24DA53EA14
:103A7000500050EBC45010BDD4F1020401FB1E22D3
:103A800040F08071192C1DDC21FA04F0C4F12004EF
:103A9000A140114371F10042584110BD9C421ABF30
:103AA00003EAD1529A420FE080EA010E0EF0004381
:103AB000400004D0490016D143F0FF4010BD49003A
:103AC00008BFD343180010BD9C4205D1D21AF7D0CD
:103AD00001F00041484010BD4A0212BF084648406C
:103AE00000F0004010BD4AB90902B1FA81F29140DC
:103AF00044B1A418C00140F000409EE7C90141F064
:103B0000004152420002B0FA80F4A040141B94E736
:103B100080B54649086850F001000860444A1068C2
:103B200050F0800010600020009002E00098401CDF
:103B30000090009844F620639842F7D310688008FC
:103B4000800010600B683B4803400B605FF41F006F
:103B5000394B1860086830F480200860002010603D
:103B600000203649086000F001F801BD80B500F082
:103B700001F801BD10B4002200202C49086850F45F
:103B800080300860521C086810F40030002803D10F
:103B90004FF6FF708242F5D10868800300D4FEE73B
:103BA0002748026852F080520260264A106850F49A
:103BB000404010601E4B186818601868186018683C
:103BC00050F480601860186830F44030186018684D
:103BD00050F4403018601C681B4804401C60186892
:103BE00050F450101860086850F080700860086841
:103BF0008001FCD5106850F48030106013480168D3
:103C0000C903FBD5116851F40031116001688903C3
:103C1000FCD51868800880001860186850F0020011
:103C2000186018680007FCD510BC704700100240EF
:103C300004100240FFFFF6FE081002402C10024064
:103C40001C10024000700040FFFFC3B7047000402A
:103C50007047FEE7FEE7FEE7FEE7704770477047F4
:103C600080B500F06FF801BD80B52D480168491C92
:103C7000016040212B48FFF773FB01BD80B5284848
:103C80004168491C416040215FF08040FFF768FBBC
:103C900001BD80B52448D0E90023521C73F1FF33E5
:103CA000C0E9002301212148FFF75AFB01BD70B58F
:103CB0001F4C220001211F48FEF730FA1E4D1F4EF7
:103CC0003078D0F11E002870207A002806D12068B4
:103CD0001B49327812011144C86005E06068184938
:103CE000327812011144C8601548A17A3278120165
:103CF000815431780901425C14F10B0133781B01C6
:103D00001844401CFEF77BFB3078401C3070307844
:103D10001E2801DB002030702878401E287070BDFE
:103D200048070020002C01406807002000080040E0
:103D3000040700200064004086070020850700205B
:103D40000004002004490868002802D00868401ECA
:103D500008607047000000007C07002010B507498C
:103D600079441831064C7C44163404E00A68081D76
:103D7000114488470146A142F8D110BD0800000057
:103D800014000000E7D7FFFF8807000000000020B4
:103D90000000000000F00DF8002801D0FFF7DEFF62
:103DA000AFF300800020AFF30080FEF7C7FA00F009
:103DB00002F80120704700F001B8000007463846BD
:103DC00000F002F8FBE7000080B5AFF30080024A84
:103DD00011001820ABBEFBE7260002000000000027
:103DE000000000000102030406070809014880479B
:103DF00001480047113B0008FD3D0008AFF300807B
:103E0000AFF30080FFF7C6FF0000000001020304CB
:103E10000000000001020304A8060020FFF7FEBF17
:103E2000FFF7FEBFFFF7FEBFFFF7FEBFFFF7FEBFC6
:103E3000FFF7FEBFFFF7FEBFFFF7FEBFFFF7FEBFB6
:103E4000FFF7FEBFFFF7FEBFFFF7FEBFFFF7FEBFA6
:103E5000FFF7FEBFFFF7FEBFFFF7FEBFFFF7FEBF96
:103E6000FFF7FEBFFFF7FEBFFFF7FEBFFFF7FEBF86
:103E7000FFF7FEBFFFF7FEBFFFF7FEBFFFF7FEBF76
:103E8000FFF7FEBFFFF7FEBFFFF7FEBFFFF7FEBF66
:103E9000FFF7FEBFFFF7FEBFFFF7FEBFFFF7FEBF56
:103EA000FFF7FEBFFFF7FEBFFFF7FEBFFFF7FEBF46
:103EB000FFF7FEBFFFF7FEBFFFF7FEBFFFF7FEBF36
:103EC000FFF7FEBFFFF7FEBFFFF7FEBFFFF7FEBF26
:103ED000FFF7FEBFFFF7FEBFFFF7FEBFFFF7FEBF16
:103EE000FFF7FEBFFFF7FEBFFFF7FEBFFFF7FEBF06
:0C3EF000FFF7FEBFFFF7FEBFFFF7FEBFAD
:0400000508003DFDB5
:00000001FF
