S01400005333324B3134364F46424D552E73726563F9
S21400000000F00020110400007904000079040000CC
S2140000107904000079040000790400000000000064
S214000020000000000000000000000000C1E4040022
S214000030790400000000000001E7040069E70400FE
S21400004059E1050067E1050075E1050083E105005B
S21400005091E105009FE10500ADE10500BBE105006B
S214000060C9E10500D7E10500E5E10500F3E105007B
S21400007001E205000FE205001DE205002BE2050087
S21400008039E20500790400007904000079040000D4
S214000090790400004D180000591100007904000092
S2140000A0115405001F540500D1470500DF47050021
S2140000B0ED4705007904000079040000790400008B
S2140000C07904000079040000790400007904000037
S2140000D0790400007904000079040000831E0500FE
S2140000E0911E0500790400007904000079040000E0
S2140000F079040000D5120000D1220500DF22050099
S214000100790400007904000079040000B51A0000A4
S21400011079040000790400007904000079040000E6
S21400012079040000791A00007904000079040000C0
S21400013079040000790400007904000079040000C6
S21400014079040000790400007904000079040000B6
S2140001507904000041AB0500790400007904000032
S2140001607904000079040000790400007904000096
S214000170790400007904000015AC050023AC0500E6
S21400018031AC05003FAC05004DAC0500790400001D
S214000190790400005BAC050069AC0500790400003A
S2140001A077AC050085AC05007904000079040000F2
S2140001B093AC0500A1AC050079040000AFAC0500C7
S2140001C079040000790400007904000035860500F3
S2140001D045860500558605006586050079040000FD
S2140001E0790400007586050085860500958605005D
S2140001F0A58605007904000079040000B586050090
S214000200C5860500D5860500E5860500790400004C
S21400021079040000F58605000587050015870500AA
S214000220258705007904000079040000358705005D
S2140002304587050055870500658705007904000099
S21400024079040000758705008587050095870500F9
S214000250A5870500790400007904000081160000D7
S214000260811600008116000081160000811600002D
S214000270811600008116000081160000811600001D
S214000280811600008116000081160000811600000D
S21400029081160000811600008116000081160000FD
S2140002A081160000811600008116000081160000ED
S2140002B081160000811600008116000081160000DD
S2140002C081160000811600008116000081160000CD
S2140002D081160000811600008116000081160000BD
S2140002E081160000811600008116000081160000AD
S2140002F0811600008116000081160000811600009D
S214000300811600008116000081160000811600008C
S214000310811600008116000081160000811600007C
S214000320811600008116000081160000811600006C
S214000330811600008116000081160000811600005C
S214000340811600008116000081160000811600004C
S214000350811600008116000081160000811600003C
S214000360811600008116000081160000811600002C
S214000370811600008116000081160000811600001C
S214000380811600008116000081160000811600000C
S21400039081160000811600008116000081160000FC
S2140003A081160000811600008116000081160000EC
S2140003B081160000811600008116000081160000DC
S2140003C081160000811600008116000081160000CC
S2140003D081160000811600008116000081160000BC
S2140003E081160000811600008116000081160000AC
S2140003F0811600008116000081160000FFFFFFFF37
S214000400FFFFFFFFFFFFFFFFFFFFFFFFFE7FFFFF78
S21400041072B64FF000014FF000024FF000034FF0AD
S21400042000044FF000054FF000064FF00007B846F6
S214000430B946BA46BB46BC460A490B4A521A013A66
S21400044005DD0020042308601944043AFBDA074857
S2140004508546074880470748804762B600F060FE3A
S214000460FEE700000000FF1F00F0002000F0002064
S214000470AD2D0600812C060001F002B981F0004186
S21400048002E000BF83F0004330B54FEA41044FEA74
S214000490430594EA050F08BF90EA020F1FBF54EA0F
S2140004A0000C55EA020C7FEA645C7FEA655C00F0AB
S2140004B0E2804FEA5454D4EB5555B8BF6D420CDD7C
S2140004C02C4480EA020281EA030382EA000083EAFF
S2140004D0010180EA020281EA0303362D88BF30BD9F
S2140004E011F0004F4FEA01314FF4801C4CEA1131F5
S2140004F002D0404261EB410113F0004F4FEA033354
S2140005004CEA133302D0524263EB430394EA050FDE
S21400051000F0A780A4F10104D5F1200E0DDB02FA4D
S2140005200EFC22FA05F2801841F1000103FA0EF2E1
S214000530801843FA05F359410EE0A5F120050EF1A7
S214000540200E012A03FA0EFC28BF4CF0020C43FAD8
S21400055005F3C01851EBE37101F0004507D54FF0E5
S214000560000EDCF1000C7EEB00006EEB0101B1F535
S214000570801F1BD3B1F5001F0CD349085FEA30007B
S2140005804FEA3C0C04F101044FEA445212F5800F86
S21400059080F09A80BCF1004F08BF5FEA500C50F123
S2140005A0000041EB045141EA050130BD5FEA4C0C06
S2140005B0404141EB010111F4801FA4F10104E9D18F
S2140005C091F0000F04BF01460020B1FA81F308BF86
S2140005D02033A3F10B03B3F120020CDA0C3208DD52
S2140005E002F1140CC2F10C0201FA0CF021FA02F12D
S2140005F00CE002F11402D8BFC2F1200C01FA02F19D
S21400060020FA0CFCDCBF41EA0C019040E41AA2BFC1
S21400061001EB0451294330BD6FEA04041F3C1CDA89
S2140006200C340EDC04F11404C4F1200220FA04F0A9
S21400063001FA02F340EA030021FA04F345EA030153
S21400064030BDC4F10C04C4F1200220FA02F001FA15
S21400065004F340EA0300294630BD21FA04F0294697
S21400066030BD94F0000F83F4801306BF81F4801130
S2140006700134013D4EE77FEA645C18BF7FEA655CA3
S21400068029D094EA050F08BF90EA020F05D054EA75
S214000690000C04BF1946104630BD91EA030F1EBF7A
S2140006A00021002030BD5FEA545C05D1400049417E
S2140006B028BF41F0004130BD14F580043CBF01F571
S2140006C0801130BD01F0004545F0FE4141F4700157
S2140006D04FF0000030BD7FEA645C1ABF1946104632
S2140006E07FEA655C1CBF0B46024650EA013406BF33
S2140006F052EA033591EA030F41F4002130BD00BFF2
S21400070090F0000F04BF0021704730B54FF48064AE
S21400071004F132044FF000054FF0000150E700BF2F
S21400072090F0000F04BF0021704730B54FF480648E
S21400073004F1320410F0004548BF40424FF000017B
S2140007403EE700BF42004FEAE2014FEA31014FEABE
S21400075002701FBF12F07F4393F07F4F81F060510D
S214000760704732F07F4208BF704793F07F4F04BF58
S21400077041F40021704730B54FF4607401F0004535
S21400078021F000411CE700BF50EA010208BF704795
S21400079030B54FF000050AE050EA010208BF704786
S2140007A030B511F0004502D5404261EB41014FF4EF
S2140007B0806404F132045FEA915C3FF4D8AE4FF0F7
S2140007C003025FEADC0C18BF03325FEADC0C18BFDA
S2140007D0033202EBDC02C2F1200300FA03FC20FA2B
S2140007E002F001FA03FE40EA0E0021FA02F1144478
S2140007F0BDE600BF70B54FF0FF0C4CF4E06C1CEA91
S21400080011541DBF1CEA135594EA0C0F95EA0C0F01
S21400081000F0DEF82C4481EA030621EA4C5123EA74
S2140008204C5350EA013518BF52EA033541F48011A3
S21400083043F4801338D0A0FB02CE4FF00005E1FB56
S21400084002E506F00042E0FB03E54FF00006E1FBA0
S21400085003569CF0000F18BF4EF0010EA4F1FF04E3
S214000860B6F5007F64F5407404D25FEA4E0E6D4123
S21400087046EB060642EAC62141EA55514FEAC52034
S21400088040EA5E504FEACE2EB4F1FD0C88BFBCF5B0
S214000890E06F1ED8BEF1004F08BF5FEA500E50F161
S2140008A0000041EB045170BD06F0004646EA010127
S2140008B040EA020081EA0301B4EB5C04C2BFD4EB59
S2140008C00C0541EA045170BD41F480114FF0000E52
S2140008D0013C00F3AB8014F1360FDEBF002001F0C0
S2140008E0004170BDC4F10004203C35DA0C341BDC3A
S2140008F004F11404C4F1200500FA05F320FA04F00C
S21400090001FA05F240EA020001F0004221F000413F
S21400091010EBD37021FA04F642EB06015EEA430EB2
S21400092008BF20EAD37070BDC4F10C04C4F12005E2
S21400093000FA04F320FA05F001FA04F240EA020095
S21400094001F0004110EBD37041F100015EEA430E66
S21400095008BF20EAD37070BDC4F1200500FA05F286
S2140009604EEA020E20FA04F301FA05F243EA020305
S21400097021FA04F001F0004121FA04F220EA020014
S21400098000EBD3705EEA430E08BF20EAD37070BD5A
S21400099094F0000F0FD101F00046400041EB01013A
S2140009A011F4801F08BF013CF7D041EA060195F01C
S2140009B0000F18BF704703F00046520043EB0303D6
S2140009C013F4801F08BF013DF7D043EA06037047C3
S2140009D094EA0C0F0CEA135518BF95EA0C0F0CD0CE
S2140009E050EA410618BF52EA4306D1D181EA030114
S2140009F001F000414FF0000070BD50EA410606BF0E
S214000A001046194652EA430619D094EA0C0F02D152
S214000A1050EA013613D195EA0C0F05D152EA033697
S214000A201CBF104619460AD181EA030101F00041B5
S214000A3041F0FE4141F470014FF0000070BD41F0FE
S214000A40FE4141F4780170BD70B54FF0FF0C4CF4D8
S214000A50E06C1CEA11541DBF1CEA135594EA0C0FF7
S214000A6095EA0C0F00F0A7F8A4EB050481EA030E44
S214000A7052EA03354FEA013100F088804FEA03332B
S214000A804FF0805545EA131343EA12634FEA0222F9
S214000A9045EA111545EA10654FEA00260EF00041BA
S214000AA09D4208BF964244F1FD0404F5407402D20C
S214000AB05B084FEA3202B61A65EB03055B084FEA9D
S214000AC032024FF480104FF4002CB6EB020E75EB9A
S214000AD0030E22BFB61A754640EA0C005B084FEAC2
S214000AE03202B6EB020E75EB030E22BFB61A75463F
S214000AF040EA5C005B084FEA3202B6EB020E75EB8A
S214000B00030E22BFB61A754640EA9C005B084FEA01
S214000B103202B6EB020E75EB030E22BFB61A75460E
S214000B2040EADC0055EA060E18D04FEA051545EAFD
S214000B3016754FEA06164FEAC30343EA52734FEAA6
S214000B40C2025FEA1C1CC0D111F4801F0BD141EA1F
S214000B5000014FF000004FF0004CB6E711F4801F84
S214000B6004BF01430020B4F1FD0C88BFBCF5E06F64
S214000B703FF6AFAEB5EB030C04BFB6EB020C5FEA74
S214000B80500C50F1000041EB045170BD0EF0004EC9
S214000B904EEA113114EB5C04C2BFD4EB0C0541EAFB
S214000BA0045170BD41F480114FF0000E013C90E6F8
S214000BB045EA060E8DE60CEA135594EA0C0F08BFBC
S214000BC095EA0C0F3FF43BAF94EA0C0F0AD150EABB
S214000BD001347FF434AF95EA0C0F7FF425AF10464E
S214000BE019462CE795EA0C0F06D152EA03353FF476
S214000BF0FDAE1046194622E750EA410618BF52EAF3
S214000C0043067FF4C5AE50EA41047FF40DAF52EAC6
S214000C1043057FF4EBAE12E74FF0FF3C06E000BF63
S214000C204FF0010C02E000BF4FF0010C4DF804CD70
S214000C304FEA410C7FEA6C5C4FEA430C18BF7FEA30
S214000C406C5C1BD001B050EA410C0CBF52EA430C5E
S214000C5091EA030F02BF90EA020F0020704710F1DE
S214000C60000F91EA030F58BF994208BF90422CBF6D
S214000C70D8176FEAE37040F0010070474FEA410C66
S214000C807FEA6C5C02D150EA013C07D14FEA430C84
S214000C907FEA6C5CD6D152EA033CD3D05DF8040BF5
S214000CA0704700BF8446104662468C461946634627
S214000CB000E000BF01B5FFF7B7FF002848BF10F1FE
S214000CC0000F01BD4DF808EDFFF7F4FF0CBF012043
S214000CD000205DF808FB00BF4DF808EDFFF7EAFFBF
S214000CE034BF012000205DF808FB00BF4DF808ED7A
S214000CF0FFF7E0FF94BF012000205DF808FB00BF6F
S214000D004DF808EDFFF7CEFF94BF012000205DF8F8
S214000D1008FB00BF4DF808EDFFF7C4FF34BF012005
S214000D2000205DF808FB00BF4A0011D212F5001241
S214000D3011D20DD56FF47873B3EB62520ED44FEA2E
S214000D40C12343F0004343EA505323FA02F07047AE
S214000D504FF00000704750EA013002D14FF0FF30EC
S214000D6070474FF0000070474FEA4102B2F1E0438F
S214000D7024BFB3F5001CDCF1FE5C0DD901F0004C7D
S214000D804FEAC0024CEA5070B2F1004F40EB8300CD
S214000D9008BF20F00100704711F0804F21D113F1F9
S214000DA03872BCBF01F00040704741F480114FEA32
S214000DB05252C2F11802C2F1200C10FA0CF320FABB
S214000DC002F018BF40F001004FEAC1234FEAD323D8
S214000DD003FA0CFC40EA0C0023FA02F34FEA430342
S214000DE0CCE77FEA625307D150EA01331EBF4FF0CB
S214000DF0FE4040F44000704701F0004040F0FE40E6
S214000E0040F40000704700BF53B94AB9002908BF34
S214000E1000281CBF4FF0FF314FF0FF3000F07EB9C6
S214000E20ADF1080C6DE904CE00F006F8DDF804E03C
S214000E30DDE9022304B070472DE9F047089D04461B
S214000E408E46002B4ED18A4294466DD9B2FA82F76E
S214000E5057B1C7F1200EB94020FA0EFE02FA07FC81
S214000E604EEA010E00FA07F44FEA1C49210CBEFBBD
S214000E70F9F61FFA8CF809FB16EE41EA0E4106FB5E
S214000E8008F38B420AD91CEB010106F1FF3280F011
S214000E9027818B4240F22481023E6144C91AA4B2E3
S214000EA0B1FBF9F009FB101144EA014400FB08F815
S214000EB0A0450AD91CEB040400F1FF3380F00E8134
S214000EC0A04540F20B810238644440EA0640A4EB99
S214000ED0080400267DB1FC4000232C606B60314680
S214000EE0BDE8F0878B4209D9002D00F0148100265A
S214000EF085E8030030463146BDE8F087B3FA83F64E
S214000F00002E40F090808B4202D3824200F2FD8099
S214000F10841A61EB030101208E46002DEBD085E894
S214000F2010403146BDE8F0871AB94FF0010CBCFB03
S214000F30F2FCBCFA8CF7A7BBA1EB0C034FEA1C42F1
S214000F401FFA8CF80126B3FBF2FE210C02FB1E33BF
S214000F5041EA034108FB0EF38B4208D91CEB010162
S214000F600EF1FF3002D28B4200F2D1808646C91ABB
S214000F70A3B2B1FBF2F002FB101143EA014408FBF6
S214000F8000F8A04508D91CEB040400F1FF3302D298
S214000F90A04500F2B7801846A4EB080440EA0E40CD
S214000FA098E7C7F1200301FA07F40CFA07FC20FAC9
S214000FB003FED9404FEA1C424EEA040EB1FBF2F69D
S214000FC04FEA1E4302FB16111FFA8CF843EA014350
S214000FD006FB08F1994200FA07F40AD91CEB030352
S214000FE006F1FF3080F08C80994240F28980023E04
S214000FF063445B1A1FFA8EF1B3FBF2F002FB103368
S21400100041EA034100FB08F38B4208D91CEB0101BF
S21400101000F1FF3E70D28B426ED902386144CB1A83
S21400102040EA06468FE7C6F1200722FA07F8B340E3
S21400103001FA06F448EA030320FA07FC4FEA134EC7
S214001040F9404CEA040CB1FBFEF94FEA1C440EFBD7
S21400105019111FFA83F844EA014109FB08F48C428F
S21400106002FA06F200FA06FA08D9591809F1FF3012
S21400107044D28C4242D9A9F102091944091B1FFA2D
S2140010808CFCB1FBFEF00EFB10114CEA014400FB99
S21400109008F8A04507D91C1900F1FF312AD2A0454F
S2140010A028D902381C4440EA0940A4EB0804A0FBF7
S2140010B002894C45C446494616D313D055B1BAEBFF
S2140010C00C0364EB010404FA07F7F3401F43F440F3
S2140010D02F606C6000263146BDE8F0871846F4E6BF
S2140010E01646DBE6C245E9D2B8EB020C69EB030113
S2140010F00138E3E70846D6E7704690E78146BDE745
S214001100064676E70238644446E7304605E7AEF121
S214001110020E61442BE72E462846ECE6704700BFD9
S21400112080B500AF45F0EAFB45F0AAFC3CF044FF72
S21400113045F071FB3CF046FF45F087FB01F014F8E4
S214001140044B1B68002B00D1FAE700BF014B1B685D
S214001150184680BD0000002080B400AF034B1B681B
S21400116000BFBD465DF8047B704700BF0020054009
S21400117080B500AF2D2055F083FC284B284A1A6016
S214001180284B00221A60002000F056F8254B1B68FA
S214001190254A934212D1254B00221A70244B1B6815
S2140011A00133234A1360224B1B68142B09D9204BAA
S2140011B01E221A601D4B00221A7002E01B4B0122F1
S2140011C01A70164B164A1A60164B00221A60012037
S2140011D000F032F8134B1B68134A934212D1134B9C
S2140011E000221A70134B1B680133124A1360114B0E
S2140011F01B68142B09D90F4B1E221A600B4B0022BA
S2140012001A7002E0094B01221A70044B00221A6081
S214001210044B00221A6000BF80BD00BF04000020FF
S214001220AA55AA5508000020CC33CC330C00002069
S214001230100000201400002080B582B000AF786057
S2140012407B68002B1CD1204B4FF04042C3F8002196
S2140012501D4B0022C3F8042155F05EFC1A4B4FF0DC
S21400126000425A60184B01221A60174A174B1B6837
S214001270C2F80431144B00221A6055F035FC1EE00B
S2140012807B68012B1BD1104B0022C3F800220E4BAB
S2140012904FF04042C3F8042255F03EFC0A4B4FF094
S2140012A080425A60084B01221A60074A084B1B68A6
S2140012B0C2F80432044B00221A6055F015FC00BF39
S2140012C00837BD4680BD00BF0090014010FFFF1FDD
S2140012D01000002090B482B000AF00237B60002393
S2140012E03B6073461C461E4B00221A6014F1130F17
S2140012F008D014F1030F05D0EFF308831C462346ED
S2140013007B6004E0EFF309831C4623467B607B6822
S21400131018333B603B681B689A1C3B681A60114B8D
S2140013201B68114A934212D1104B1B6903F04043CD
S214001330002B03D00E4B0F4A1A6008E00B4B1B69BC
S21400134003F04063002B02D0094B0A4A1A60074B91
S2140013504FF04C421A6100BF0837BD4690BC70473C
S2140013600090014004000020AA55AA5500800140C4
S21400137008000020CC33CC3380B400AF044B4FF0D1
S21400138005421A6000BFBD465DF8047B704700BF8B
S214001390002008E080B400AF034B044A1A6000BF88
S2140013A0BD465DF8047B7047002008E0010000851C
S2140013B080B400AF034B1B781846BD465DF8047B2F
S2140013C0704700BF0C00002080B582B000AF00233D
S2140013D03B600023FB71304B1A463049304861F0C1
S2140013E09FFD1821182072F0B1FA38603B682D4A2C
S2140013F0934202D0FB790133FB711921192072F058
S214001400A5FA38603B68284A934202D0FB7901333C
S214001410FB711A211A2072F099FA38603B68234A49
S214001420934202D0FB790133FB711B211B2072F023
S2140014308DFA38603B6841F6C722934202D0FB79AA
S2140014400133FB711021102072F080FA38603B687F
S214001450174A934202D0FB790133FB71FB79002BCC
S21400146003D0144B01221A7011E0124B00221A709E
S214001470114B1B680133104A13600F4B1B68142B6B
S21400148005D90D4B1E221A600A4B00221A7000BFA7
S2140014900837BD4680BD00BFDC0000007C4B07005F
S2140014A0C40DFF1F21F85DE331AFD628D2A326C7AF
S2140014B095DE1BB9180000201C00002080B400AF89
S2140014C0034B1B781846BD465DF8047B704700BF8B
S2140014D01800002080B584B000AF3C4B1B68002B82
S2140014E001D000236EE0394B01221A6038490020F3
S2140014F05EF0C2F8374BBB600023FB810AE0022295
S214001500B96800205EF0D2F8BB680433BB60FB8984
S2140015100133FB81FB891F2BF1D92F4BBB600023C6
S214001520FB810AE00222B96800205EF0BFF8BB68C3
S2140015300433BB60FB890133FB81FB891F2BF1D988
S214001540264BBB600023FB810AE00222B96800201C
S2140015505EF0ACF8BB680433BB60FB890133FB81EB
S214001560FB891F2BF1D91E4BBB600023FB810AE0D1
S2140015700222B96800205EF099F8BB680433BB60AD
S214001580FB890133FB81FB891F2BF1D9154BBB600F
S2140015900023FB810AE00222B96800205EF086F88C
S2140015A0BB680433BB60FB890133FB81FB891F2BBF
S2140015B0F1D900205EF09AF87860044B00221A6099
S2140015C07B689BB218461037BD4680BD40000020A1
S2140015D0685306000090044000A0044000B0044099
S2140015E000C0044000D0044080B500AF054B1B8807
S2140015F0002B05D1FFF76EFF03461A46014B1A80F3
S21400160000BF80BD2000002080B582B000AF03463A
S214001610FB80FFF75FFF03461A46104B1A800F4BFE
S2140016201B88FA889A4212D10D4B00221A700D4B75
S2140016301B6801330B4A13600A4B1B68142B09D92D
S214001640084B1E221A60064B00221A7002E0044B5A
S21400165001221A7000BF0837BD4680BD2200002058
S214001660240000202800002080B400AF034B1B7825
S2140016701846BD465DF8047B704700BF2400002076
S21400168080B582B000AF0023FB800A4B1B88FB802E
S2140016904FF0E023D3F8043DC3F30803103B9AB29F
S2140016A0FB881343FB80012000F022F800BF0837B8
S2140016B0BD4680BDF8FFFF1F80B400AF0A4B1B6815
S2140016C00133094A1360084B1B68142B05D9064BD7
S2140016D01E221A60054B00221A70044B1B7818460F
S2140016E0BD465DF8047B7047300000202C000020CB
S2140016F080B483B000AF0346FB71FB79012B03D89F
S214001700044AFB79137000E000BF0C37BD465DF855
S214001710047B70472C00002080B400AF074B1B787A
S214001720DBB203F04003002B14BF01230023DBB21F
S2140017301846BD465DF8047B704700BF00000240B7
S21400174080B400AF034B40221A7000BFBD465DF860
S214001750047B70470000024080B400AF074B93F84C
S2140017602E30DBB203F00203002B14BF012300234C
S214001770DBB21846BD465DF8047B704700000240A9
S21400178080B400AF044B022283F82E2000BFBD4673
S2140017905DF8047B704700BF0000024080B483B051
S2140017A000AF0346FB71FB79002B0AD00D4A0D4BA8
S2140017B093F82F30DBB243F02003DBB282F82F30F1
S2140017C009E0084A074B93F82F30DBB223F02003DA
S2140017D0DBB282F82F3000BF0C37BD465DF8047BC5
S2140017E0704700BF0000024080B500AF124B134A9E
S2140017F01A605CF0E3FB0120FFF7D0FF0E4B1B687E
S2140018000F4A934212D10F4B00221A700E4B1B68E0
S21400181001330D4A13600C4B1B68142B09D90A4B75
S2140018201E221A60074B00221A7002E0054B0122A6
S2140018301A7000BF80BD00BF34000020AA55AA550C
S214001840CC33CC33380000203C00002090B583B069
S21400185000AF00237B6000233B6073461C460020DD
S214001860FFF79CFF14F1130F08D014F1030F05D0F7
S214001870EFF308831C4623467B6004E0EFF30983FE
S2140018801C4623467B607B6818333B60104B1B6806
S214001890104A93420AD1FFF75FFF0346002B13D08E
S2140018A00B4B0D4A1A60FFF76BFF0DE0FFF754FF76
S2140018B00346002B01D0FFF763FFFFF72DFF03461B
S2140018C0002B01D0FFF73CFF00BF0C37BD4690BD94
S2140018D034000020AA55AA55CC33CC3380B400AFD0
S2140018E0034B1B781846BD465DF8047B704700BF67
S2140018F03800002080B489B000AFF860B9607A6024
S214001900FB683B617B687B610023BB6121E03B6930
S2140019101B781B061A467B6953407B610023FB61DC
S2140019200EE07B69002B05DA7B695A000E4B5340AC
S2140019307B6102E07B695B007B61FB690133FB61D5
S214001940FB69072BEDD93B6901333B61BB6901336A
S214001950BB61BA69BB689A42D9D37B6918462437FB
S214001960BD465DF8047B7047B71DC10480B584B0E2
S21400197000AFF860B9607A60796800205DF07CFEA0
S214001980BA68F96800205DF091FE00205DF0AEFEBA
S214001990034618461037BD4680BD0000B0B58AB075
S2140019A000AF194B3C461D460FCD0FC495E80F00FF
S2140019B084E80F00154B1B68002B20D1134B012227
S2140019C01A603B464FF0FF3220211846FFF792FF81
S2140019D078623B460E4A20211846FFF7C7FF38625A
S2140019E07A6A3B6A9A4203D10A4B00221A7002E0D6
S2140019F0084B01221A70054B00221A6000E000BF57
S214001A002837BD46B0BD00BFC02F060040000020EE
S214001A10785306004400002080B400AF034B1B78C8
S214001A201846BD465DF8047B704700BF44000020A2
S214001A3080B400AF064A064BD3F8003143F080630B
S214001A40C2F8003100BFBD465DF8047B704700BF9A
S214001A500040064080B400AF064A064BD3F8003676
S214001A6043F08063C2F8003600BFBD465DF8047BD5
S214001A70704700BF0040064080B500AF55F04CF8F8
S214001A8003E0FFF7D5FFFFF7E5FF094BD3F800317A
S214001A9003F08063B3F1806FF3D0054BD3F80036C4
S214001AA003F08063B3F1806FEBD000BF80BD00BF52
S214001AB00040064080B500AF0821002053F096FC99
S214001AC0002050F0CBFB00BF80BD000080B582B088
S214001AD000AF00237B6000F079F8324B1B6903F0FF
S214001AE07063B3F1C06F02D07B6801337B602D4B0F
S214001AF0D3F800212C4B13402B4A934202D07B682C
S214001B0001337B60274BD3F80026274B1340264A29
S214001B10934202D07B6801337B607B68002B03D046
S214001B20224B01221A7002E0204B00221A701D4B35
S214001B30D3F8003103F08063002B1AD0194BD3F88A
S214001B40003603F08063002B13D0184B01221A7066
S214001B50144A144BD3F8003143F08063C2F80031C6
S214001B60104A104BD3F8003643F08063C2F80036B4
S214001B7011E00E4B00221A700D4B1B6801330C4A05
S214001B8013600B4B1B68142B05D9094B1E221A60D9
S214001B90064B00221A70392054F072FF00BF083737
S214001BA0BD4680BD00400640010003014500002000
S214001BB04800002080B400AF034B1B781846BD4693
S214001BC05DF8047B704700BF4500002080B400AF7E
S214001BD00A4A0A4BD3F8003143F44033C2F80031C6
S214001BE0064A064BD3F8003643F44033C2F80036B4
S214001BF000BFBD465DF8047B704700BF004006404E
S214001C0080B584B000AF0023FB600023BB60494969
S214001C10002060F0BBFE002060F07CFF00233B71DC
S214001C201B23FB803B1D1A460021002060F020FF8E
S214001C30002060F037FF404A0021002060F048FF97
S214001C4000233B711D23FB803B1D1A46002100200C
S214001C5060F00EFF002060F025FF384A00210020CB
S214001C6060F036FF00233B711E23FB803B1D1A46A7
S214001C700021002060F0FCFE002060F013FF304AD8
S214001C800021002060F024FF0023FB6015E02A4AB4
S214001C90FB6832F813301A4640F6E44303FB02F3BF
S214001CA0002B01DA03F6FF731B1399B2224AFB6876
S214001CB022F81310FB680133FB60FB68022BE6D9A1
S214001CC01D4B1B88B3F5617F05D31B4B1B8840F269
S214001CD04C42934202D9BB680133BB60164B5B880B
S214001CE0B3F5486F02D2BB680133BB60124B9B88CA
S214001CF00A2B02D9BB680133BB60BB68002B12D12C
S214001D00104B00221A70104B1B6801330E4A1360EA
S214001D100D4B1B68142B09D90B4B1E221A60094B5E
S214001D2000221A7002E0074B01221A7000BF10371B
S214001D30BD4680BDC409FF1F500000205200002091
S214001D40540000204C0000205800002080B400AF53
S214001D50034B1B781846BD465DF8047B704700BFF2
S214001D604C00002080B582B000AF0023FB71FFF767
S214001D7003FB294900205DF07FFCFFF7A7FE274AFA
S214001D80022100205CF08EF9FFF72EFCFFF738FFEB
S214001D90FFF704FEFFF718FBFFF7EAF9FFF724FD4D
S214001DA000F09EF80346FB7100F0C1F803461A46A1
S214001DB0FB791343FB7100F00BF903461A46FB79D7
S214001DC01343FB7100F0DAF803461A46FB79134317
S214001DD0FB7100F073F903461A46FB791343FB7157
S214001DE000F01DF903461A46FB791343FB7100F019
S214001DF03DF903461A46FB791343FB7100F08CF954
S214001E0003461A46FB791343FB71FFF7C3FA00BF7C
S214001E100837BD4680BD00BF685306004453060021
S214001E2080B582B000AF0023FB710023BB71FFF7C3
S214001E3099FF204B1B78002B2AD11E4B00221A70CC
S214001E400023BB711BE0BB79032B0DD0BB79082B9D
S214001E500AD0BB7903F57A631846BB79164A134451
S214001E60012219463CF0E4FDBB79134AD35C012BF2
S214001E7002D1FB790133FB71BB790133BB71BB79AE
S214001E80092BE0D9FB79002B02D00C4B01221A70EB
S214001E90002001F055F903461A46094B1A70022035
S214001EA001F04EF903461A46064B1A7000BF083773
S214001EB0BD4680BD6A000020600000205C00002057
S214001EC05D0000205E00002080B400AF034B1B784E
S214001ED01846BD465DF8047B704700BF5C000020D6
S214001EE080B582B000AF0023FB710023BB71FFF703
S214001EF0E5FA0346FB71FB79002B0AD00123BB7180
S214001F00BB1D012219464FF47A603CF073FC002397
S214001F1009E00023BB71BB1D012219464FF47A600D
S214001F203CF068FC012318460837BD4680BD80B5E6
S214001F3082B000AF0023FB710023BB71FFF73AFEAF
S214001F400346FB71FB79002B0AD00123BB71BB1D36
S214001F500122194640F6A1703CF04CFC002309E033
S214001F600023BB71BB1D0122194640F6A1703CF050
S214001F7041FC012318460837BD4680BD80B582B0B7
S214001F8000AF0023FB710023BB71FFF795FB0346F0
S214001F90FB71FB79002B0AD00123BB71BB1D01220C
S214001FA0194640F6A2703CF025FC00230CE0002306
S214001FB0BB710020FFF79CFBBB1D0122194640F6B3
S214001FC0A2703CF017FC012318460837BD4680BDBA
S214001FD080B582B000AF0023FB710023BB71FFF712
S214001FE0B5FE0346FB71FB79002B0AD00123BB71BB
S214001FF0BB1D0122194640F6A4703CF0FBFB0023F3
S21400200009E00023BB71BB1D0122194640F6A470EF
S2140020103CF0F0FB012318460837BD4680BD80B56E
S21400202082B000AF0023FB710023BB71FFF756FCA4
S2140020300346FB71FB79002B0AD00123BB71BB1D45
S2140020400122194640F6A5703CF0D4FB002309E0B7
S2140020500023BB71BB1D0122194640F6A5703CF05B
S214002060C9FB012318460837BD4680BD80B582B03F
S21400207000AF0023FB710023BB71FFF799F90346FD
S214002080FB71FB79002B0AD00123BB71BB1D01221B
S214002090194640F6A6703CF0ADFB002309E000238D
S2140020A0BB71BB1D0122194640F6A6703CF0A2FB90
S2140020B0012318460837BD4680BD000080B582B0B3
S2140020C000AF0023FB710023BB71124B1B88184620
S2140020D0FFF79AFAFFF7C8FA0346FB71FB79002B65
S2140020E00AD00123BB71BB1D0122194640F6A7701A
S2140020F03CF080FB002309E00023BB71BB1D0122DE
S214002100194640F6A7703CF075FB012318460837C1
S214002110BD4680BD2000002080B582B000AF002301
S214002120FB710023BB71FFF777FC0346FB71FB795D
S214002130002B0AD00123BB71BB1D0122194640F6B5
S214002140A9703CF057FB002309E00023BB71BB1DC0
S2140021500122194640F6A9703CF04CFB01231846B4
S2140021600837BD4680BD000090B583B002AFAB4BCC
S2140021700093012301220521A9484CF0ABFB02463F
S214002180A84B1A60A84B0093022301220A21A748F5
S2140021904CF0A0FB0246A64B1A60A64B0093032306
S2140021A001223221A4484CF095FB0246A34B1A604C
S2140021B0A34B0093042301226421A2484CF08AFB1F
S2140021C00246A14B1A60A14B009305230122C821A9
S2140021D09F484CF07FFB02469E4B1A609E4B009336
S2140021E0062301224FF496719C484CF073FB02467E
S2140021F09B4B1A609B4B0093072301224FF4C87138
S21400220099484CF067FB0246984B1A60984B00932F
S214002210082301224FF4FA7196484CF05BFB024605
S214002220954B1A60954B0093092301224FF47A715F
S21400223093484CF04FFB0246924B1A60924B009329
S2140022400A2301224FF4FA6190484CF043FB024601
S2140022508F4B1A60734B1B68002B0BD0714B1C689E
S2140022604DF08CF8024600230093002301212046FF
S2140022704CF07EFB6E4B1B68002B0BD06C4B1C6827
S2140022804DF07CF8024600230093002301212046EF
S2140022904CF06EFB694B1B68002B0BD0674B1C6821
S2140022A04DF06CF8024600230093002301212046DF
S2140022B04CF05EFB644B1B68002B0BD0624B1C681B
S2140022C04DF05CF8024600230093002301212046CF
S2140022D04CF04EFB5F4B1B68002B0BD05D4B1C6815
S2140022E04DF04CF8024600230093002301212046BF
S2140022F04CF03EFB5A4B1B68002B0BD0584B1C680F
S2140023004DF03CF8024600230093002301212046AE
S2140023104CF02EFB554B1B68002B0BD0534B1C6808
S2140023204DF02CF80246002300930023012120469E
S2140023304CF01EFB504B1B68002B0BD04E4B1C6802
S2140023404DF01CF80246002300930023012120468E
S2140023504CF00EFB4B4B1B68002B0BD0494B1C68FC
S2140023604DF00CF80246002300930023012120467E
S2140023704CF0FEFA464B1B68002B0BD0444B1C68F7
S2140023804CF0FCFF02460023009300230121204668
S2140023904CF0EEFA3F4B01930D23009300234FF4CD
S2140023A0C8723D493D484CF089FD3D4B01930B23D7
S2140023B0009300234FF496723A493B484CF07EFD5A
S2140023C03A4B01930C23009300237822384939486E
S2140023D04CF074FD384B01930E23009300234FF40A
S2140023E0C872364936484CF069FD364B01930F23C8
S2140023F0009300234FF4C872334934484CF05EFD16
S214002400334B0193102300930023C82231493248EE
S2140024104CF054FD4CF0BCFEFEE700BFDD2400008F
S214002420E02F06006C000020F1240000F42F0600C8
S21400243070000020D525000008300600740000203B
S214002440ED2500001C30060078000020092600005C
S214002450343006007C000020792600004C30060050
S21400246080000020892600006430060084000020DA
S214002470992600007C30060088000020B126000067
S214002480943006008C000020F1260000AC300600D8
S214002490900000209C000020C430060069730200F3
S2140024A094000020D8300600B9A30200980000204F
S2140024B0EC3006000D4D0200A000002000310600A2
S2140024C0D9F30300A40000201031060069F40300CD
S2140024D0A800002020310600A5D0030080B500AF7C
S2140024E039F0E0F916F090FB46F08AF800BF80BDA0
S2140024F080B500AF42F09EFB22F064FA344B1B78A6
S214002500092B55D801A252F823F000BF352500004C
S2140025103F2500004D2500005B25000065250000D6
S2140025206F2500007925000087250000952500000E
S214002530A325000033F0AEFE33F0DCFA39E034F0C9
S214002540A7F934F02FFA34F011FB32E02FF07AFCC2
S2140025502FF04CFF30F0D4FA2BE030F08DFD30F049
S2140025607EFE26E030F092FF2CF05AFA21E02BF0A7
S2140025700DFE2AF07BFE1CE02BF074FC2AF0ECFB30
S21400258047F092F915E022F087FD02F00FFE09F001
S2140025909FF90EE023F04CF902F0A6FC08F06EFA64
S2140025A007E032F01FFC35F0F9F81EF073F900E092
S2140025B000BF074B1B780133DAB2054B1A70044B89
S2140025C01B78092B02D9024B00221A7000BF80BD6F
S2140025D0AC00002080B500AF6021002031F0E8FAA2
S2140025E00CF060FC47F09CFD00BF80BD80B500AFDE
S2140025F002F016FD02F070FD2EF0C0FD03F038F973
S21400260010F01EFD00BF80BD80B500AF194B1B78D3
S214002610042B1ED801A252F823F000BF312600007A
S214002620372600003D26000043260000492600000D
S21400263001F03EFC0EE033F081F80BE003F03AFDCB
S21400264008E031F0FDFF05E04AF00AFB49F098FA91
S21400265000E000BF074B1B780133DAB2054B1A7057
S214002660044B1B78042B02D9024B00221A7000BFC1
S21400267080BD00BFAD00002080B500AF0BF06EFF40
S21400268047F0AEFD00BF80BD80B500AF0BF0AEFFDB
S2140026900CF03CF800BF80BD80B500AF32F01EF9EC
S2140026A007F074FD12F014FA16F0B0FB00BF80BD00
S2140026B080B500AF01F09EFC46F0F0FF0B4B1B7898
S2140026C0002B05D10BF06AFB084B01221A7004E0C0
S2140026D00BF0D0FB054B00221A700CF015F93DF0FC
S2140026E061FAFFF79DFB00BF80BD00BFAE00002073
S2140026F080B500AF47F0D0F80BF0CEFC09F0F6FE40
S2140027000AF006F800BF80BD90B587B002AF03465A
S214002710FB710023FB73274B1B88FB73FB7B002B93
S21400272008D0FB7B052B05D0FB7B062B02D0FB7B62
S214002730072B21D10BF010F803469CB2FB79184604
S21400274047F012FA034699B2FB7B9BB2FA7992B233
S214002750019200930B4622460121082008F096FAC3
S214002760FB7B184601F09AFA0AF050FF0346022B4C
S2140027701CD00AF04BFF19E00AF0EEFF03469CB2AD
S214002780FB79184647F0F0F9034699B2FB7B9BB2FB
S214002790FA7992B2019200930B4622460121082054
S2140027A008F074FAFB7B184601F078FA00BF14377D
S2140027B0BD4690BDDC0A002090B587B002AF034648
S2140027C0FB710023FB736F4B5B88FB73FB7B022B59
S2140027D00ED1FB79184647F0C7F90346022B07D0FF
S2140027E0FB79184647F0C0F90346032B40F0C58036
S2140027F0FB7B052B07D1FB79184647F0B5F9034656
S214002800032B40F0BA800AF0E9FE0346012B04D001
S2140028100AF0E4FE0346052B1AD10AF09DFF034694
S2140028209CB2FB79184647F09FF9034699B2FB7BAA
S2140028309BB2FA7992B2019200930B46224602218D
S214002840082008F023FAFB7B184603F0CFFC95E03F
S2140028500AF0C4FE0346032B42D10AF07DFF03466E
S2140028609CB2FB79184647F07FF9034699B2FB7B8A
S2140028709BB2FA7992B2019200930B46224602214D
S214002880082008F003FAFB7B184603F0AFFC0AF0BA
S214002890BDFE0346022B04D00AF0B8FE0346052B05
S2140028A06CD1FB7B002B02D0FB7B012B66D10AF0A0
S2140028B053FF03469CB2FB79184647F055F903468A
S2140028C09AB2FB799BB201930023009313462246EB
S2140028D00121082008F0DAF9002001F0DFF94DE0C8
S2140028E00AF07CFE0346022B04D00AF077FE03466D
S2140028F0042B43D10AF08AFE0346022B04D00AF0CA
S21400290085FE0346052B39D10AF026FF03469CB206
S214002910FB79184647F028F9034699B2FB7B9BB231
S214002920FA7992B2019200930B46224602210820C1
S21400293008F0ACF9FB7B184603F058FCFB7B002B39
S21400294002D0FB7B012B19D10AF006FF03469CB28E
S214002950FB79184647F008F903469AB2FB799BB212
S214002960019300230093134622460121082008F015
S2140029708DF9002001F092F900E000BF1437BD4643
S21400298090BD00BFDC0A002090B585B002AF0346BC
S214002990FB717B4B9B88012B0BD102F035FA23F0A1
S2140029A00DFD32F033FB03F02FF8FF2031F0CAFAAA
S2140029B0B9E0734B9B88022B0DD1FB79184647F084
S2140029C0D3F80346012B40F2C580FF2014F0D6FA58
S2140029D02CF05CFAA7E06A4B9B88032B0AD1FB79A4
S2140029E0184647F0C1F80346012B40F2B5800BF0BD
S2140029F013FD98E0624B9B88042B0AD1FB7918469E
S214002A0047F0B2F80346012B40F2A88009F0D0FF49
S214002A1089E05B4B9B88052B0AD1FB79184647F06B
S214002A20A3F80346012B40F29B800BF01DFF7AE0D3
S214002A30534B9B88062B0CD1FB79184647F094F82D
S214002A400346012B40F28E8014F068FE0CF0F2F87C
S214002A5069E04B4B9B88072B0CD1FB79184647F057
S214002A6083F80346012B7FD9FF2014F07BFB08F088
S214002A70D7FA58E0424B9B88082B0CD1FB791846B6
S214002A8047F072F80346012B70D9FF2014F052FD70
S214002A902CF070FA47E03A4B9B88092B0AD1FB7959
S214002AA0184647F061F80346012B61D9FF2014F061
S214002AB04DFC38E0324B9B880A2B0ED1FB7918462A
S214002AC047F052F80346032B54D10AF09FFD034605
S214002AD0052B28D119F076FC25E0294B9B880B2B7B
S214002AE002D133F035F91EE0254B9B880C2B02D122
S214002AF002F090FC17E0224B9B880D2B13D1FB793C
S214002B00184647F031F80346012B35D902F07CF918
S214002B1023F054FC32F07AFA02F076FFFF2031F010
S214002B2011FA2EF09BFB0AF017FE03469CB2FB79C7
S214002B30184647F019F8034699B2114B9B88FA7964
S214002B4092B2019200930B4622460321082008F019
S214002B509DF812E000BF10E000BF0EE000BF0CE0E2
S214002B6000BF0AE000BF08E000BF06E000BF04E0C8
S214002B7000BF02E000BF00E000BF0C37BD4690BDBE
S214002B80DC0A002090B585B002AF0346FB71FB79E6
S214002B90002B2FD1194B1B8803F00103002B03D009
S214002BA0012035F0FDFE02E0002035F0F9FE134B63
S214002BB01B8803F00203002B03D0012035F008FF2A
S214002BC002E0002035F004FF0AF0C6FD03469CB282
S214002BD0FB79184646F0C8FF034699B2074B1B8898
S214002BE0FA7992B2019200930B46224604210820FD
S214002BF008F04CF800BF0C37BD4690BDE40A002034
S214002C0090B585B002AF0346FB71FB79002B33D13C
S214002C101B4B5B88012B03D1012035F081FE15E0AC
S214002C20174B5B88022B03D1012035F061FE0DE0C7
S214002C30134B5B88032B06D1012035F071FE012073
S214002C4035F056FE02E0002035F052FE0AF084FD14
S214002C5003469CB2FB79184646F086FF034699B2B7
S214002C60074B5B88FA7992B2019200930B46224694
S214002C700521082008F00AF800BF0C37BD4690BDB5
S214002C80E40A002080B582B000AF0346FB71184B03
S214002C909B881E2B12D8174B1B789AB2144B9B8816
S214002CA09A4220D0124B9B88DAB2124B1A70114B04
S214002CB01B78002118462CF069F814E00C4B9B8812
S214002CC05A2B06D10B4B1B78012118462CF05EF8C8
S214002CD009E0074B9B885B2B05D1064B1B78002130
S214002CE018462CF053F800BF0837BD4680BD00BF1D
S214002CF0E40A0020AF00002080B582B000AF034693
S214002D00FB71184BDB881E2B12D8174B1B789AB218
S214002D10144BDB889A4220D0124BDB88DAB2124B77
S214002D201A70114B1B780021184608F0F9F814E0C9
S214002D300C4BDB885A2B06D10B4B1B78012118460F
S214002D4008F0EEF809E0074BDB885B2B05D1064B55
S214002D501B780021184608F0E3F800BF0837BD4688
S214002D6080BD00BFE40A0020B000002080B582B01D
S214002D7000AF0346FB71184B1B891E2B12D8174B4E
S214002D801B789AB2144B1B899A4220D0124B1B898F
S214002D90DAB2124B1A70114B1B78002118462CF031
S214002DA09FF814E00C4B1B895A2B06D10B4B1B7853
S214002DB0012118462CF094F809E0074B1B895B2B81
S214002DC005D1064B1B78002118462CF089F800BF69
S214002DD00837BD4680BD00BFE40A0020B1000020D1
S214002DE080B582B000AF0346FB71094B5B89002BB0
S214002DF003D101200BF0AAFE06E0054B5B895B2B96
S214002E0002D100200BF0A2FE00BF0837BD4680BDF1
S214002E10E40A002080B483B000AF0346FB71FB7960
S214002E20062B07D8FB79FA79054931F81210054ABE
S214002E3022F8131000BF0C37BD465DF8047B7047C0
S214002E40F00A0020BC0A002090B587B002AF034607
S214002E50FB710023FB73114BDB89DBB2184603F0D2
S214002E6055FA0E4B5B88102B02D80123FB7301E04A
S214002E700023FB73094B1888084BDC88074B1B891B
S214002E80FA7992B2F97B0192009323460246092012
S214002E9007F0FCFE00BF1437BD4690BDF00A0020C8
S214002EA080B584B000AF03460A46FB711346BB717B
S214002EB00023FB73BB79012B00F29880FB790B2B68
S214002EC000F28C8001A252F823F000BFFD2E000015
S214002ED0272F0000472F0000712F00007D2F0000D5
S214002EE0892F0000952F0000A12F0000AD2F0000B5
S214002EF0B92F0000C52F0000D12F0000002000F0E1
S214002F0091F803461A46BB79934201D00123FB731E
S214002F10BB7919461D2042F00BF9BB7919461020E3
S214002F2042F006F95BE0012000F07CF803461A4602
S214002F30BB79934201D00123FB73BB79194611205C
S214002F4042F0F6F84BE0022000F06CF803461A4612
S214002F50BB79934201D00123FB73BB7919461E202F
S214002F6042F0E6F8BB791946122042F0E1F836E066
S214002F70BB791946132042F0DBF830E0BB791946DE
S214002F80142042F0D5F82AE0BB791946152042F005
S214002F90CFF824E0BB791946162042F0C9F81EE0A7
S214002FA0BB791946172042F0C3F818E0BB791946DA
S214002FB0182042F0BDF812E0BB791946202042F0F6
S214002FC0B7F80CE0BB791946212042F0B1F806E0CC
S214002FD0BB791946222042F0ABF800E000BFFB7B2D
S214002FE0012B03D121F0EEFC08F012FC00BF1037D5
S214002FF0BD4680BD80B500AF0021112042F098F894
S2140030000021102042F094F800211D2042F090F894
S2140030100021122042F08CF800211E2042F088F891
S21400302000BF80BD80B584B000AF0346FB710023AF
S214003030FB73FB790B2B7BD801A252F823F000BF61
S2140030407130000095300000A1300000C53000004F
S214003050D1300000DD300000E9300000F53000001F
S214003060013100000D31000019310000253100004B
S214003070102042F0CBFB0346012B08D11D2042F066
S214003080C5FB0346012B02D10123FB7352E000234C
S214003090FB734FE0112042F0B9FB0346FB7349E097
S2140030A0122042F0B3FB0346012B08D11E2042F04B
S2140030B0ADFB0346012B02D10123FB733AE000234C
S2140030C0FB7337E0132042F0A1FB0346FB7331E0AD
S2140030D0142042F09BFB0346FB732BE0152042F0C6
S2140030E095FB0346FB7325E0162042F08FFB034654
S2140030F0FB731FE0172042F089FB0346FB7319E0C1
S214003100182042F083FB0346FB7313E0202042F0B6
S2140031107DFB0346FB730DE0212042F077FB034660
S214003120FB7307E0222042F071FB0346FB7301E0CD
S214003130FF2300E0FB7B18461037BD4680BD00BF6E
S21400314080B584B000AF0346FB710023FB73FB79A8
S2140031500B2B7BD801A252F823F000BF8D31000064
S214003160B1310000BD310000E1310000ED3100005A
S214003170F931000005320000113200001D32000057
S214003180293200003532000041320000102042F0A3
S2140031903DFB0346012B08D11D2042F037FB0346BA
S2140031A0012B02D10123FB7352E00023FB734FE097
S2140031B0112042F02BFB0346FB7349E0122042F03D
S2140031C025FB0346012B08D11E2042F01FFB0346B9
S2140031D0012B02D10123FB733AE00023FB7337E097
S2140031E0132042F013FB0346FB7331E0142042F039
S2140031F00DFB0346FB732BE0152042F007FB03464E
S214003200FB7325E0162042F001FB0346FB731FE02C
S214003210172042F0FBFA0346FB7319E0182042F031
S214003220F5FA0346FB7313E0202042F0EFFA03465C
S214003230FB730DE0212042F0E9FA0346FB7307E03A
S214003240222042F0E3FA0346FB7301E0FF2300E08E
S214003250FB7B18461037BD4680BD00BF80B500AF6B
S214003260102042F0D3FA0346002B19D11D2042F05D
S214003270CDFA0346002B13D1122042F0C7FA0346BC
S214003280002B0DD11E2042F0C1FA0346002B07D1B9
S214003290112042F0BBFA0346002B01D1012300E0C7
S2140032A00023184680BD80B500AF122042F0AEFA6B
S2140032B00346012B19D11E2042F0A8FA0346012B23
S2140032C013D1102042F0A2FA0346012B05D11D208F
S2140032D042F09CFA0346012B05D0112042F096FAE4
S2140032E00346012B01D1012300E00023184680BDD0
S2140032F080B584B000AF0346FB710023FB73FB79F7
S214003300184630F02BFF0346FB732DF091FF034663
S214003310012B01D908230AE02DF08AFF0346012B72
S21400332004D1FB7B032B01D8042300E0FB7B18466B
S2140033301037BD4680BD80B500AF31F037FF03467D
S214003340022B23D131F042FF0346022B1ED131F06F
S2140033504DFF0346022B19D1342030F097FE03466A
S214003360002B13D1352030F091FE0346002B0DD1F3
S214003370362030F08BFE0346002B07D1372030F086
S21400338085FE0346002B01D1012300E000231846EA
S21400339080BD80B500AF26F021FD0346002B06D089
S2140033A023F01EF80346012B01D1012300E0002381
S2140033B0184680BD98B500AF0220FFF7C1FE034651
S2140033C0002B20D13D4B1B78012B05D1002025F08A
S2140033D077FA3A4B00221A7025F086FA0346012B3C
S2140033E00FD108200AF0C2F803461A46344BB3F849
S2140033F064309A4203DD334B9B89012B01D90123AC
S2140034005AE0002358E02D4B1B78002B05D10020F6
S21400341025F056FA294B01221A7025F065FA034664
S214003420012B3AD10AF08AF903461A46244BB3F820
S21400343066309A4231D308200AF098F803461A46B6
S2140034401F4BB3F864309A4221DC08200AF08EF84D
S21400345003461C460AF072F903469C4209DD082022
S2140034600AF084F803461C460AF068F90346E31A95
S21400347008E00AF063F903461C4608200AF076F8CE
S2140034800346E31A0E4AB2F86820934203DA0D4B5D
S2140034909B89012B01D901230EE00020FFF750FE87
S2140034A00346012B05D00120FFF74AFE0346012BF9
S2140034B001D1012300E00023184698BDB200002089
S2140034C06005FF1F7804FF1F98B500AF002030F09E
S2140034D0DDFD0346012B0AD10AF03EF903461A46E3
S2140034E0224BDB7C5B429A4201DC03233CE011204A
S2140034F030F0CCFD0346012B09D10AF02DF9034626
S2140035001A461A4B1B7D9A4201DB03232CE00AF075
S2140035101BFA03461A46164BB3F850309A4201DBA4
S214003520022321E00AF00AF903461C460AF02CF9A9
S21400353003469C4208D90AF001F903461C460AF0E5
S21400354023F90346E31A07E00AF01EF903461C4671
S2140035500AF0F4F80346E31A064AB2F85C209342EF
S21400356001DC012300E00023184698BDE005FF1F9C
S214003570BC04FF1F6005FF1F80B500AF0AF0ECF823
S21400358003461A46094BDB7C5BB25B429A4209DB78
S2140035900AF0E2F803461A46044BDB7C9A4201DC4A
S2140035A0012300E00023184680BD00BFE005FF1F92
S2140035B080B500AF0AF0D0F8034613F11E0F06DB05
S2140035C00AF0CAF803461E2B01DC012300E00023A4
S2140035D0184680BD98B500AF3B2030F06FFD03461F
S2140035E0002B05D109F0F0F902461C4B1A601DE0CD
S2140035F01B4B9B8B002B19D009F0E6F90246174BA4
S2140036001B689A4206D909F0DFF90246134B1B687D
S214003610D31A05E0114B1C6809F0D6F90346E31AE5
S2140036200F4A928B934201D3012314E05C2030F0C2
S21400363045FD0346012B06D109F0DCFF0346002BAF
S21400364001D1012307E002F083FA0346002B01D0E4
S214003650012300E00023184698BD00BFB4000020F8
S2140036606005FF1F80B582B000AF0023FB71FFF737
S214003670B1FF0346012B01D100239FE002F034FA8C
S2140036800346002B05D1002030F068FD0346072BCB
S21400369001D1002392E022F05DFD0346002B23D1EA
S2140036A0502030F0F3FC0346012B1DD0502030F0A4
S2140036B0EDFC0346022B17D0512030F0E7FC034602
S2140036C0012B11D0512030F0E1FC0346022B0BD029
S2140036D0522030F0DBFC0346012B05D0522030F0A0
S2140036E0D5FC0346022B01D1002367E022F05AFEE8
S2140036F00346002B17D10B2030F0C8FC0346012BE5
S21400370011D00B2030F0C2FC0346022B0BD01B203E
S21400371030F0BCFC0346012B05D01B2030F0B6FC75
S2140037200346022B01D1002348E05C2030F0AEFCBB
S2140037300346012B05D05C2030F0A8FC0346022B84
S21400374001D100233AE046F04BF90346012B01D1A4
S214003750002333E006F09AFF0346012B01D1002335
S2140037602CE00023FB7125E0FB79184630F03AFC8C
S2140037700346082B06D0FB79184630F033FC034688
S214003780072B14D1FB79184630F098FC0346012B22
S2140037900BD0FB79184630F079FC0346022B06D195
S2140037A009F01CFF0346022B01D0002306E0FB793C
S2140037B00133FB71FB795F2BD6D9012318460837F6
S2140037C0BD4680BD80B500AF21F012FA0346012B3E
S2140037D001D1012300E00023184680BD80B500AF6C
S2140037E021F024FA0346012B01D1012300E0002337
S2140037F0184680BD80B500AF3B2030F05FFC034626
S214003800012B01D1012300E00023184680BD80B5BE
S21400381000AF002030F052FC0346012B11D01020E0
S21400382030F04CFC0346012B0BD0022030F046FC57
S2140038300346012B05D0122030F040FC0346012B36
S21400384001D1012300E00023184680BD80B500AFFB
S214003850012030F033FC0346012B11D0112030F04C
S2140038602DFC0346012B0BD0032030F027FC03462B
S214003870012B05D0132030F021FC0346012B01D18B
S214003880012300E00023184680BD80B500AF2AF073
S2140038906FFA03469BB2184680BD80B500AF2AF08B
S2140038A073FA03469BB2184680BD000080B582B00E
S2140038B000AF0023FB800023BB806023FB70002347
S2140038C0BB70644B1B78002B02D0012B4ED0B2E0AD
S2140038D00023FB703EE0FB78392B11D10023FB80E0
S2140038E0FB78184630F014FC03461A465A4BA3FBE6
S2140038F00223DB089BB203339AB2584B1A801CE0B3
S214003900FB78184630F06EFB0346082B1ED1FB787A
S2140039103B2B07D109F07AFE0346002B02D1002389
S214003920FB800AE0FB78184630F0F2FB03461A46A6
S214003930494BA3FB0223DB08FB80494B1B88FA8814
S2140039409A4204D9464AFB88138000E000BFFB7801
S2140039500133FB70FB785F2BBDD90023BB70414B56
S21400396000221A803B4B01221A706DE03D4B1B88EB
S21400397001339AB23B4B1A800023FB7020E0FB78A1
S214003980184630F02FFB0346082B16D1FB78184656
S21400399030F094FB0346012B05D10223BB70BB8895
S2140039A00133BB800FE0FB78184630F06FFB034610
S2140039B0022B02D1BB880133BB80FB780133FB703E
S2140039C0FB785F2BDBD9BB78022B08D10223BB70B8
S2140039D0244B00221A801F4B00221A7034E0BB884A
S2140039E0002B0BD01F4B1B8819461D4B1B881A46F5
S2140039F013469B0013445B00994219DDFFF79BFCBE
S214003A000346012B0BD0174B1B881946134B1B88FC
S214003A101A4613469B0013445B00994208DD0123B7
S214003A20BB70104B00221A800A4B00221A700BE063
S214003A300023BB7008E00023BB700A4B00221A80EC
S214003A40044B00221A7000BFBB7818460837BD46E4
S214003A5080BD00BFB8000020CDCCCCCCBA00002082
S214003A60BC000020BE00002080B582B000AF034638
S214003A700A46FB711346BB8007F0BAFE00BF083744
S214003A80BD4680BD80B582B000AF03460A46FB71D6
S214003A901346BB80FB79012B0AD1BB88022B07D1CA
S214003AA0064B9B89012B03D822F028FB22F040FC12
S214003AB007F09EFE00BF0837BD4680BD7804FF1F96
S214003AC080B582B000AF03460A46FB711346BB8042
S214003AD007F08EFE00BF0837BD4680BD80B582B0B9
S214003AE000AF03460A46FB711346BB71FB79022BF7
S214003AF013D0FB79052B10D0BB79022B02D0BB79F3
S214003B00052B0AD101F080F922F058FC31F07EFA3C
S214003B1001F07AFFFF2030F015FA07F069FE00BFCB
S214003B200837BD4680BD80B483B000AF0346FB7146
S214003B300B46BB7113467B7100BF0C37BD465DF864
S214003B40047B704780B584B000AF396011461A46D2
S214003B500346FB710B46BB7113467B710023FB7358
S214003B60BB79002B1CD1FB79002B11D10023FB73F2
S214003B7007E0FB7B0021184607F066FFFB7B01335E
S214003B80FB73FB7B9AB2224B5B889A42F1D33AE0F6
S214003B90FB79013BDBB20021184607F055FF32E007
S214003BA0BB79022B2FD1FB79002B1AD10023FB7394
S214003BB010E07B79022B05D1FB7B3968184607F0AD
S214003BC043FF04E0FB7B0021184607F03DFFFB7B2C
S214003BD00133FB73FB7B9AB20D4B5B889A42E8D3AA
S214003BE011E07B79022B07D1FB79013BDBB2396808
S214003BF0184607F029FF06E0FB79013BDBB20021FF
S214003C00184607F021FF00BF1037BD4680BD00BF35
S214003C106005FF1F80B483B000AF0346FB710B4600
S214003C20BB801346BB7100BF0C37BD465DF8047BF6
S214003C30704780B483B000AF0346FB710B46BB8071
S214003C401346BB7100BF0C37BD465DF8047B70475A
S214003C5080B500AF42F011FE0346B3F57A7F09D374
S214003C6009F096FE0346C72B04D809F0A9FE0346C2
S214003C70C72B01D900230DE009F0B0FC0346062B44
S214003C8007D0054B07221A800C20FEF73DFD0123C6
S214003C9000E00223184680BDDC0A002080B582B012
S214003CA000AF0346FB71FB79082B00F2EB8001A204
S214003CB052F823F0D93C0000393D0000393D0000A1
S214003CC0393D0000393D0000D93C0000973D00001A
S214003CD0F13D0000593E000009F080FC0346022B2F
S214003CE004D009F07BFC0346032B0ED16D4B00225B
S214003CF01A706D4AFB79137001F086F8042001F003
S214003D0073FB6A4BFF221A70BEE009F067FC03469D
S214003D10012B05D009F062FC0346052B40F0B48069
S214003D20614AFB79137001F06FF8604BFF221A703E
S214003D305C4BFF221A70A7E009F050FC0346012BEB
S214003D4013D1FFF78FFC0346012B0ED1574B0022F1
S214003D501A70554AFB79137001F056F8022001F0EC
S214003D6043FB504BFF221A7090E009F037FC0346E5
S214003D70022B40F08B804C4B1B78012B40F086804A
S214003D80FB79022B40F08280474AFB791370454B43
S214003D90FF221A707AE0434BFF221A70434BFF2231
S214003DA01A7009F01BFC0346022B0ED009F016FC15
S214003DB00346032B09D009F011FC0346042B04D05C
S214003DC009F00CFC0346052B62D1374AFB791370C9
S214003DD0052001F009FBFFF701FD0346012B03D187
S214003DE0022000F0BDFF53E0012000F0B9FF4FE0D5
S214003DF02E4BFF221A7009F0F1FB0346022B04D06B
S214003E0009F0ECFB0346032B09D1264B00221A705F
S214003E10254AFB791370042001F0E6FA3AE009F02F
S214003E20DDFB0346012B09D11E4BFF221A701E4AEA
S214003E30FB791370062001F0D7FA2BE009F0CEFBD1
S214003E400346052B04D009F0C9FB0346042B21D1F9
S214003E50154AFB7913701DE009F0C0FB0346062BDC
S214003E6004D009F0D3FB0346052B15D10D4BFF22DA
S214003E701A700E4BFF221A700B4AFB79137000F073
S214003E80C3FF09E000BF08E000BF06E000BF04E093
S214003E9000BF02E000BF00E000BF00BF0837BD461D
S214003EA080BD00BF0104FF1FC00000200004FF1FEC
S214003EB080B500AF09F0AAFB0346052B00F09580FD
S214003EC0022009F00DFC03465B0903F00103012BF9
S214003ED004D0FFF730FA0346002B04D10121082056
S214003EE0FEF7DEFF3DE009F079FB0346002B04D029
S214003EF009F074FB0346062B04D100210820FEF7C8
S214003F00CFFF2EE009F0ECFC03461A46384BDB8C5C
S214003F101BB29A4209DA09F08DFC03461A46344B66
S214003F20DB8C1BB2023B9A4204DB01210820FEF721
S214003F30B7FF16E009F0D4FC03461A462C4B1B8D3F
S214003F401BB29A420DDC09F075FC03461A46284B54
S214003F501B8D1BB2013B9A4203DC00210820FEF7B2
S214003F609FFF09F03BFB0346002B09D009F036FB08
S214003F700346062B04D0FFF7DEF90346002B04D1D8
S214003F8000210720FEF78CFF30E009F0C3FC034653
S214003F901A46174B5B8D1BB29A4209DD09F04AFCA4
S214003FA003461A46124B5B8D1BB202339A4204DC60
S214003FB001210720FEF774FF18E009F0ABFC03466A
S214003FC01A460B4B9B8D1BB29A420FDB09F032FC54
S214003FD003461A46064B9B8D1BB201339A4205DBFD
S214003FE000210720FEF75CFF00E000BF80BD00BF99
S214003FF06005FF1F80B582B000AF0023FB71002371
S214004000BB7100237B71FFF723FE0346002B07D10D
S214004010002014F093FE0121012041F089F80BE006
S214004020FFF716FE0346022B06D10021012041F0C1
S2140040307FF8012014F082FE09F0E8FA0346052B0B
S21400404016D1B44B1B78022B07D9B24B00221A703C
S2140040500021002041F06CF859E1AE4B1B7801338B
S214004060DAB2AC4B1A700121002041F061F84EE143
S21400407042F003FC0346B3F5C87F06D80123FB7164
S2140040800123BB7101237B7161E009F0A7FA0346A7
S214004090032B2BD10123FB710123BB7101F024FDFF
S2140040A00346012B03D19C4B1B787B714FE009F034
S2140040B089FA0346032B0DD909F0B4FA0346002B00
S2140040C008D109F0BBFA0346002B03D1934B1B78AB
S2140040D07B713CE0FFF78EFB0346012B03D1904B30
S2140040E01B787B7133E000237B7130E009F076FAB1
S2140040F00346052B07D18B4B1B78FB710023BB7146
S21400410001237B7123E0844B1B78FB71824B1B7869
S214004110BB7109F063FA0346012B08D1FFF7A2FA38
S2140041200346002B03D17D4B1B787B710FE009F013
S21400413055FA0346012B08D1FFF75CFB0346012B1B
S21400414003D1774B1B787B7101E000237B71FB79F1
S2140041501946002040F0ECFFBB7919460420FEF714
S2140041609FFE7B7919460520FEF79AFE6A4B1B7860
S21400417083F00103DAB2684B1A70664B1B7803F0C3
S2140041800303DBB2002B03D1664B01221A7009E051
S214004190604B1B7803F00303DBB2022B02D1614BAA
S2140041A000221A705B4B1A785F4BA3FB0213990828
S2140041B00B469B000B44D31ADBB2042B03D1574BA0
S2140041C001221A700FE0534B1A78574BA3FB0213C9
S2140041D099080B469B000B44D31ADBB2002B02D186
S2140041E04E4B00221A704B4B1B7803F00703DBB2D2
S2140041F0042B03D14A4B01221A701FE0454B1B7853
S21400420003F00703DBB2052B03D1454B00221A70DF
S21400421014E0404B1B7803F00703DBB2062B03D1F8
S2140042203F4B01221A7009E03A4B1B7803F0070354
S214004230DBB2072B02D13A4B00221A70354B1B78A3
S2140042400133DAB2334B1A70324B1B78272B02D964
S214004250304B00221A7009F0C1F90346032B20D117
S21400426001210920FEF71CFE09F0DCF90346002BAD
S21400427004D101210A20FEF713FE03E000210A20E4
S214004280FEF70EFE09F0DAF90346002B04D10121F1
S2140042900B20FEF705FE10E000210B20FEF700FEC7
S2140042A00BE000210920FEF7FBFD01210A20FEF7A6
S2140042B0F7FD01210B20FEF7F3FD09F08FF9034609
S2140042C0002B04D0FFF77EFA0346002B07D1174BCE
S2140042D000221A7001210620FEF7E2FD17E0FFF724
S2140042E071FA0346012B0ED1104B1B78022B0AD80D
S2140042F000210620FEF7D4FD0C4B1B780133DAB202
S2140043000A4B1A7003E001210620FEF7C9FD0837A4
S214004310BD4680BDC8000020C9000020CA0000209D
S214004320CB000020CC000020CDCCCCCCCD00002093
S21400433080B500AFFFF796F90346002B17D1C64BA2
S2140043401B78312B0CD9C54B00221A70C24B0022A9
S2140043501A70C34BFF221A70012000F0C9FC9BE2C2
S214004360BD4B1B780133DAB2BB4B1A7094E2BA4BE2
S21400437000221A70BA4B1B78642B00F27A8201A2D4
S21400438052F823F01945000069450000B5450000C5
S214004390FB450000694600009D460000E34600001D
S2140043A05D470000C1470000EB470000734800006F
S2140043B0734800007348000073480000734800000C
S2140043C073480000734800007348000073480000FC
S2140043D073480000734800007348000073480000EC
S2140043E073480000734800007348000073480000DC
S2140043F073480000734800007348000073480000CC
S21400440073480000734800007348000073480000BB
S21400441073480000734800007348000073480000AB
S214004420734800007348000073480000734800009B
S214004430734800007348000073480000734800008B
S214004440734800007348000073480000734800007B
S214004450734800007348000073480000734800006B
S214004460734800007348000073480000734800005B
S214004470734800007348000073480000734800004B
S214004480734800007348000073480000734800003B
S214004490734800007348000073480000734800002B
S2140044A0734800007348000073480000734800001B
S2140044B0734800007348000073480000734800000B
S2140044C073480000734800007348000073480000FB
S2140044D073480000734800007348000073480000EB
S2140044E073480000734800007348000073480000DB
S2140044F073480000734800007348000073480000CB
S21400450073480000734800007348000073480000BA
S2140045107348000027450000514B64221A704F4B29
S21400452000221A70B8E1FEF734FF0346012B06D1CD
S2140045304A4B00221A704A4B01221A70ACE1474BD4
S2140045401B78312B09D9454B00221A70444BFF22A9
S2140045501A70022000F0CCFB9EE1404B1B78013322
S214004560DAB23E4B1A7097E1FEF724FF0346012BA2
S2140045700ED13A4B00221A703A4B1B78032B03D10C
S214004580374B07221A7076E1354B02221A7072E119
S214004590324B1B780133DAB2304B1A702F4B1B7834
S2140045A0632B40F26881032000F0A2FB022000F09B
S2140045B00FFC60E101210220FEF772FC0220FEF7EC
S2140045C0BFFD0346012B06D1244B00221A70244B54
S2140045D003221A7051E1214B1B780133DAB21F4BCC
S2140045E01A701E4B1B78632B40F24781032000F0A5
S2140045F07FFB022000F0D0FB3FE1FEF7DBFE034628
S214004600012B16D1154B00221A70164B1B78032B64
S21400461003D1134B09221A7031E1124B1B78042B7D
S21400462003D10F4B07221A7029E10D4B04221A7092
S21400463025E10A4B1B780133DAB2084B1A70074B98
S2140046401B78632B40F21B81032000F051FB0220F5
S21400465000F0A2FB13E100BFCE000020CF00002038
S2140046600004FF1FC000002001210120FEF718FCF7
S2140046708A4B1B780133DAB2884B1A70874B1B784B
S2140046809AB2874BB3F85E309A42C0F0FA80834BFA
S21400469000221A70834B05221A70F2E0824B1B78B8
S2140046A0022B03D17F4B06221A70ECE0FEF70CFFBC
S2140046B00346032B07D1062000F01AFB0021012039
S2140046C0FEF7EEFBDFE0FEF7FFFE0346022B40F0B0
S2140046D0DA80042000F00CFB00210120FEF7E0FB4E
S2140046E0D1E0FEF7F1FE0346012B06D16B4B00220C
S2140046F01A706C4B07221A70C7E0FEF7E5FE0346F9
S214004700032B07D1062000F0F3FA00210120FEF764
S214004710C7FBBAE0FEF7D8FE0346022B07D10420FB
S21400472000F0E6FA00210120FEF7BAFBADE05B4B95
S2140047301B780133DAB2594B1A70584B1B789AB271
S214004740574BB3F860309A42C0F09F80052000F0C7
S214004750CFFA00210120FEF7A3FB96E001210020FE
S214004760FEF79EFB0020FEF7EBFC0346012B16D15E
S2140047704A4B00221A704C4B1B78032B03D1494B33
S21400478002221A7083E0484B1B78042B03D1454B5A
S21400479009221A707BE0434B08221A7077E03F4BE1
S2140047A01B780133DAB23D4B1A703C4B1B78632BF7
S2140047B06DD9032000F09CFA002000F0EDFA66E0C8
S2140047C0364B1B780133DAB2344B1A70334B1B78F6
S2140047D00A2B5ED900210120FEF762FB2F4B002238
S2140047E01A70304B09221A7053E02F4BFF221A70B2
S2140047F00220FEF7A5FC0346012B15D10020FEF78C
S2140048009FFC0346012B0FD10120FEF799FC0346BF
S214004810002B09D1214B00221A70224BFF221A705E
S214004820032000F0E1FD36E01C4B1B780133DAB2C2
S2140048301A4B1A70194B1B78632B2CD9032000F0E7
S21400484057FA0220FEF77CFC0346002B03D1022019
S21400485000F0A2FA1FE00120FEF772FC0346012BCF
S21400486003D1012000F0B4FA15E0002000F094FA1D
S21400487011E000BF10E000BF0EE000BF0CE000BF7C
S2140048800AE000BF08E000BF06E000BF04E000BF8B
S21400489002E000BF00E000BF00BF80BDCF000020E8
S2140048A06005FF1F0004FF1FC000002080B500AF9A
S2140048B0A94B1B78062B00F2408101A252F823F088
S2140048C0DD480000F3480000554900009B49000001
S2140048D0034A0000494A0000A14A00009F4B0022FC
S2140048E01A709D4B01221A7000210120FEF7D8FA9B
S2140048F030E1FEF741FE0346012B03D0984B1B78B0
S214004900052B0FD108F076FE0346012B03D1924B00
S21400491004221A7002E0904B02221A708F4B00227B
S2140049201A700CE18D4B1B780133DAB28B4B1A7080
S2140049308A4B1B78632B40F20281884B00221A7048
S214004940854BFF221A70012000F0EEF9052000F0DA
S2140049504BFDF4E000210020FEF7A2FA0020FEF74F
S214004960EFFB0346002B06D17C4B00221A707A4BD5
S21400497003221A70E5E0794B1B780133DAB2774BE5
S2140049801A70764B1B78132B40F2DB80002000F069
S2140049901FFA022000F0C8F9D3E0704B1B780133F1
S2140049A0DAB26E4B1A70FEF703FE0346012B04D1F3
S2140049B0FEF700FD0346012B04D0684B1B78312B15
S2140049C040F2C180654B1B78312B09D9FEF7F0FD0C
S2140049D00346002B02D1002000F0FAF9FEF7EAFCAD
S2140049E00220FEF7ADFB0346002B03D15A4B0622EE
S2140049F01A7002E0584B04221A70584B00221A70A4
S214004A00A1E000210220FEF74BFA0220FEF798FBF9
S214004A100346002B06D1514B00221A704E4B05223E
S214004A201A7092E04D4B1B780133DAB24B4B1A707A
S214004A304A4B1B78132B40F28880022000F0C8F9FE
S214004A40022000F071F980E0444B1B780133DAB2A3
S214004A50424B1A70FEF7ACFD0346012B04D1FEF75D
S214004A60A9FC0346012B03D03C4B1B78312B6ED997
S214004A703A4B1B78312B02D9022000F0A9F900200E
S214004A80FEF75EFB0346012B03D1334B02221A705E
S214004A9002E0314B06221A70304B00221A7056E0A4
S214004AA00220FEF74DFB0346002B20D10020FEF728
S214004AB047FB0346002B1AD10120FEF741FB0346B5
S214004AC0002B14D1254B00221A70234BFF221A709C
S214004AD0234B1B78072B03D1062000F085FC2BE028
S214004AE01F4BFF221A70012000F07EFC24E01B4BB7
S214004AF01B780133DAB2194B1A70184B1B78632BEC
S214004B0027D9032000F0F4F80220FEF719FB03462D
S214004B10012B03D1022000F05BF91AE00120FEF71A
S214004B200FFB0346012B03D1012000F051F910E0E2
S214004B30002000F04DF90CE00BE000BF0AE000BFDB
S214004B4008E000BF06E000BF04E000BF02E000BFD0
S214004B5000E000BF00BF80BD0104FF1FD0000020A2
S214004B60C000002080B500AF484B1B78002B15D046
S214004B70464B1B78052B11D0444B1B78062B0DD0CB
S214004B80424B1B78072B09D0414B00221A70414B31
S214004B9000221A703D4BFF221A7076E00021012099
S214004BA0FEF77EF93B4B1B78012B03D0374B1B7867
S214004BB0062B01D1FEF71EFA344B1B78052B08D0C6
S214004BC0FEF7DAFC0346012B03D0334B1B78002B91
S214004BD035D02F4B00221A7008F00CFD0346012B2F
S214004BE016D10220FEF7ACFA0346012B07D1294B5B
S214004BF001221A7000210220FEF752F92FE0002150
S214004C000220FEF74DF900210020FEF749F926E0C4
S214004C100020FEF795FA0346012B07D11D4B012213
S214004C201A7000210020FEF73BF918E00021002052
S214004C30FEF736F900210220FEF732F90FE0144B9A
S214004C401B780133DAB2124B1A70114B1B781D2BEE
S214004C5005D9124BFF221A70012000F065F8FEF706
S214004C60FDFA0346012B10D1094B00221A70094B9E
S214004C7000221A70054B1B78072B03D1062000F084
S214004C80B3FB02E0014BFF221A7080BDC00000207B
S214004C90D1000020D2000020C30000200104FF1F26
S214004CA080B500AFFEF7A6F9FEF7D8FA0346012B4B
S214004CB013D10E4B1B78072B0FD10820FEF740FAB6
S214004CC00346002B09D10720FEF73AFA0346002BCD
S214004CD003D100210320FEF7E3F8044B1B78082BD2
S214004CE002D1002000F080FB00BF80BDC000002085
S214004CF080B483B000AF0346FB71FB79062B0AD85D
S214004D00FB79012202FA03F3DAB2064B1B7813434F
S214004D10DAB2044B1A7000BF0C37BD465DF8047B50
S214004D20704700BFC200002080B483B000AF0346C7
S214004D30FB71FB79032B0AD8FB79012202FA03F3F5
S214004D40DAB2064B1B781343DAB2044B1A7000BF74
S214004D500C37BD465DF8047B704700BFC3000020DB
S214004D6080B483B000AF0346FB71FB79022B0AD8F0
S214004D70FB79012202FA03F3DAB2064B1B781343DF
S214004D80DAB2044B1A7000BF0C37BD465DF8047BE0
S214004D90704700BFC100002080B483B000AF034658
S214004DA0FB71FB790B2B0AD8FB79012202FA03F37D
S214004DB09AB2064B1B8813439AB2044B1A8000BF64
S214004DC00C37BD465DF8047B704700BFC40000206A
S214004DD080B483B000AF0346FB71FB790B2B0AD877
S214004DE0FB79012202FA03F39AB2064B1B8813439F
S214004DF09AB2044B1A8000BF0C37BD465DF8047BA0
S214004E00704700BFC600002080B500AF0A4B0022E6
S214004E101A800A4B00221A80094B00221A70094B8E
S214004E2000221A70FEF7DAFC0346002B02D1064B6E
S214004E3000221A7000BF80BDC4000020C6000020FB
S214004E40C2000020C3000020C100002080B400AFD4
S214004E50034B1B781846BD465DF8047B704700BFC1
S214004E60C200002080B400AF034B1B781846BD4636
S214004E705DF8047B704700BFC300002080B400AF1D
S214004E80034B1B781846BD465DF8047B704700BF91
S214004E90C100002080B400AF084B1B881B015AB22B
S214004EA0074B1B885BB203F00F035BB213435BB286
S214004EB0DBB21846BD465DF8047B7047C400002090
S214004EC0C600002080B400AF064B00221A80054BB7
S214004ED000225A80034B00229A8000BFBD465DF830
S214004EE0047B7047000A002080B584B000AF002322
S214004EF0FB810023BB8100237B8100233B810023B1
S214004F00FB800023BB8008F069FB0346BB8100F0F2
S214004F10EBFD03467B8100F097FD03463B8100F0E6
S214004F20BBFD0346FB800020FEF7E2F90346BB808C
S214004F30BB89052B14D0BB88082B11D0BB88072B48
S214004F400ED0BB88052B0BD0BB88062B08D07B89E0
S214004F50002B05D13B89002B02D1FB88002B02D009
S214004F600523FB8143E0BB88042B02D10423FB818D
S214004F703DE0BB88032B0FD100F058FA0346022B06
S214004F8004D0FEF763FC0346012B02D10323FB810A
S214004F902DE00423FB812AE0BB88022B0FD100F012
S214004FA045FA0346012B04D0FEF731FC0346012BDD
S214004FB002D10223FB811AE00423FB8117E000F0F4
S214004FC035FA0346022B02D10323FB810FE000F0E3
S214004FD02DFA0346012B02D10223FB8107E0BB8991
S214004FE0032B02D00023FB8101E00123FB8108F0A4
S214004FF0E9FA03461A46FB89934208D008F0E2FA1B
S2140050000346DBB2FA8911461846FEF72DFD034A21
S214005010FB89138000BF1037BD4680BD000A002004
S21400502080B582B000AF0023FB80294B5B88FB80F5
S214005030284B1B789BB2FA889A420AD0254B1B78DD
S214005040FA8811461846FEF71DFDFB88DAB2214B9A
S2140050501A70FB88062B26D801A252F823F000BF50
S2140050607D50000083500000895000008F500000E3
S214005070955000009B500000A150000000F0E2F99F
S21400508012E000F07FFA0FE000F0A4FA0CE000F067
S214005090E3FA09E000F024FB06E000F053FB03E02F
S2140050A000F0A6FB00E000BF0A4B1B789AB2084B44
S2140050B05B889A4207D0074B1A78054B5B881946DF
S2140050C01046FEF7DFFC00BF0837BD4680BD00BFB8
S2140050D0000A0020D400002080B582B000AF002374
S2140050E0BB800023FB8008F037FB0346BB80B7F984
S2140050F00430294A127D934206DB284B1B78013385
S214005100DAB2264B1A700CE0B7F90420224BDB7C8F
S2140051105B429A4205DC224B1B780133DAB2204B05
S2140051201A70204B1B78132B19D91C4B1B780E2B8F
S21400513002D90223FB8008E0194B1B780E2B02D9FC
S2140051400123FB8001E00023FB80164B00221A702F
S214005150134B00221A70114B00221A7008E0114BF4
S2140051601B780133DAB20F4B1A700F4B9B88FB800B
S2140051700D4B9B88FA889A4207D00B4B9B88DBB274
S214005180FA8811461846FEF79BFC074AFB88938070
S21400519000BF0837BD4680BDE005FF1FD5000020D4
S2140051A0D6000020D7000020000A002080B584B07A
S2140051B000AF0023FB600023BB600023FB7108F0F8
S2140051C00DFA0346002B04D0FEF7B5F80346002B75
S2140051D00CD17F4B00221A707E4B00221A707E4B39
S2140051E000221A807D4B00221A70EEE0FEF70FFBBD
S2140051F00346012B24D1FEF729FB0346002B1FD1C3
S214005200744B00221A70724B1B78022B11D9704B0C
S21400521003221A70714B1B78022B00F0CD806F4B67
S21400522001221A70FEF739FB03461A466A4B1A80AB
S214005230CBE0674B1B780133DAB2654B1A70C4E0DB
S214005240FEF704FB0346012B24D1FEF7E0FA0346E3
S214005250002B1FD15E4B00221A705E4B1B78022B70
S21400526011D95C4B03221A705C4B1B78012B00F0A3
S214005270A5805A4B02221A70FEF707FB03461A4611
S214005280554B1A80A1E0534B1B780133DAB2514BD1
S2140052901A709AE04E4B00221A704E4B00221A707B
S2140052A04E4B1B78012B05D0022B44D0002B00F070
S2140052B087808AE0FEF7F1FA0346FB6008F096FA6C
S2140052C003461A46464BA3FB0223DB089BB2BB6091
S2140052D008F0D4FA03461A46424BB3F89C309A427A
S2140052E008D808F087F90346002B03D13B4B002271
S2140052F01A706AE0384B1B881A46FB689A4202D935
S214005300354B1B88FB60344B1B881A46FB689B1A80
S2140053104FF47A7202FB03F2BB68B2FBF3F3FB7145
S214005320FB799AB22F4BB3F89A309A424AD32B4B5A
S21400533000221A7046E0FEF7A8FA0346FB6008F063
S21400534055FA03461A46264BA3FB0223DB089BB2FC
S214005350BB6008F0ABFA03461A46224BB3F89E3001
S2140053609A4208D308F046F90346002B03D11B4B9C
S21400537000221A7029E0184B1B881A46FB689A42CE
S21400538002D9154B1B88FB60134B1B881A46FB681B
S2140053909B1A4FF47A7202FB03F2BB68B2FBF3F37C
S2140053A0FB71FB799AB20F4BB3F89A309A420BD343
S2140053B00A4B00221A7007E000BF06E000BF04E0B8
S2140053C000BF02E000BF00E000BF1037BD4680BD52
S2140053D0D8000020D9000020DA000020D3000020EA
S2140053E0CDCCCCCCBC04FF1F80B483B000AF03464A
S2140053F0FB71FB79062B04D8FB799AB2044B5A80D2
S21400540000E000BF0C37BD465DF8047B704700BF68
S214005410000A002080B400AF034B00221A7000BFC1
S214005420BD465DF8047B7047D300002080B400AF13
S214005430034B1B781846BD465DF8047B704700BFDB
S214005440D300002080B582B000AF0023FB714A4B2A
S2140054501B780A2B00F2888001A252F823F000BFC6
S2140054608D5400009F540000E7540000695500006A
S214005470695500006955000069550000695500002F
S21400548069550000695500002D550000FDF7B2FD76
S2140054903A4B00221A80384B01221A7067E0FDF75B
S2140054A0DDFE0346012B0AD101210320FDF7F8FC9F
S2140054B0324B00221A80304B02221A7057E02F4BD4
S2140054C01B88092B06D92D4B00221A802A4B0A224C
S2140054D01A704CE0294B1B8801339AB2274B1A806E
S2140054E0FDF788FD43E0FDF726FF0346012B0BD1B1
S2140054F0FDF74FFF0346012B06D1204B00221A80F2
S2140055001D4B0A221A7032E01C4B1B88312B06D921
S2140055101A4B00221A80184B0A221A7027E0174BE3
S2140055201B8801339AB2154B1A8020E0FEF7BEF9AD
S2140055300346FB71FB79022B09D1114B05225A80D9
S2140055400E4B00221A800C4B00221A700EE0FB79DC
S214005550012B0BD10A4B01225A80084B00221A80DD
S214005560054B00221A7001E000BF00E000BF00BF3C
S2140055700837BD4680BD00BFDC000020DE000020EE
S214005580000A002080B500AF0020FDF7B1FE0346FC
S214005590082B03D10E4B05225A8016E0FDF75EFE5F
S2140055A00346012B03D10A4B01225A800DE008F076
S2140055B02DF80346052B03D1054B02225A8004E042
S2140055C0FDF718FD024B01225A8000BF80BD00BFC8
S2140055D0000A002080B500AF0020FDF789FE0346D4
S2140055E0082B06D10020FFF783FB1A4B05225A80B2
S2140055F02DE008F00BF80346052B26D1FDF72EFE0E
S2140056000346012B03D1134B01225A801FE00120D1
S214005610FDF796FD0346012B03D10E4B02225A805E
S21400562015E00020FDF78CFD0346012B09D1022072
S214005630FDF786FD0346012B03D1064B03225A8055
S21400564005E0044B02225A8001E0FEF771FE00BF1F
S21400565080BD00BF000A002080B500AF0020FDF727
S21400566047FE0346082B03D11C4B05225A8033E025
S21400567007F0CCFF0346052B16D1FDF7EFFD0346DA
S214005680012B03D1154B01225A8025E00120FDF79E
S21400569057FD0346012B03D1104B02225A801BE014
S2140056A00E4B03225A8017E0FDF7D8FD0346012B68
S2140056B004D0FDF78FFF0346012B03D10020FEF731
S2140056C0EDFA09E00120FDF73BFD0346012B03D16F
S2140056D000210120FDF7E4FB00BF80BD000A00208A
S2140056E080B500AF0020FDF703FE0346082B06D169
S2140056F00020FFF719FB124B05225A801DE007F029
S21400570085FF0346052B16D1FDF7A8FD0346012BA2
S21400571003D10B4B01225A800FE00120FDF710FD4C
S2140057200346012B03D1064B02225A8005E0044BA8
S21400573003225A8001E0FFF7B9F800BF80BD00BF22
S214005740000A002080B500AF07F060FF0346052B77
S21400575001D0FFF707FA07F041FF0346062B0BD1EF
S214005760214B00221A700020FDF7C2FD0346082BCD
S21400577038D0FFF749FB35E00020FDF7B9FD0346BA
S214005780082B18D0FDF76AFD0346012B13D1164BE4
S2140057901B78312B08D9144B00221A70FFF734FB04
S2140057A0124B01225A801DE00F4B1B780133DAB2F0
S2140057B00D4B1A7016E0FDF751FD0346012B0DD177
S2140057C0094B1B78312B02D9FFF71EFB0AE0064B6C
S2140057D01B780133DAB2044B1A7003E0024B002246
S2140057E01A70FFE700BF80BDE0000020000A00201E
S2140057F080B500AF07F00AFF0346052B01D0FFF780
S2140058004FFA00BF80BD000080B483B000AF002315
S214005810FB710023FB7107E0FB790F4A002122F899
S2140058201310FB790133FB71FB79052BF4D90B4B75
S21400583000221A800A4B00221A800A4B00221A7095
S214005840094B00221A70094B00221A6000BF0C3761
S214005850BD465DF8047B7047E4000020F0000020A1
S214005860F2000020F4000020F5000020F8000020E0
S21400587080B500AF07F0CAFE0346052B02D100F044
S214005880C3F8BBE00020FDF733FD03461A465C4B29
S2140058901A7007F0A3FE0346052B03D0584B1B785F
S2140058A0082B03D1052000F05FF902E0052000F088
S2140058B095FA534B1B78072B03D1042000F054F9BC
S2140058C002E0042000F08AFA0120FDF711FD0346ED
